:020000040001F9
:1080000090BF012071F701000B99030045F70100B3
:1080100045F7010045F7010045F7010045F701006C
:1080200000000000000000000000000059EF010007
:1080300045F7010000000000E9EE010045F70100EE
:10804000EDEF0100EDEF0100EDEF0100EDEF0100BC
:10805000EDEF0100EDEF0100EDEF0100EDEF0100AC
:10806000EDEF0100EDEF0100EDEF0100EDEF01009C
:10807000EDEF0100EDEF0100EDEF0100EDEF01008C
:10808000EDEF0100EDEF0100EDEF0100EDEF01007C
:10809000EDEF0100EDEF0100EDEF0100EDEF01006C
:1080A000EDEF0100EDEF0100EDEF0100EDEF01005C
:1080B000EDEF0100EDEF0100EDEF0100EDEF01004C
:1080C000EDEF0100EDEF0100EDEF0100EDEF01003C
:1080D000EDEF0100EDEF0100EDEF0100EDEF01002C
:1080E000EDEF0100EDEF0100EDEF0100EDEF01001C
:1080F000EDEF0100EDEF0100EDEF0100EDEF01000C
:10810000EDEF0100EDEF0100EDEF0100EDEF0100FB
:10811000EDEF0100EDEF0100EDEF0100EDEF0100EB
:10812000EDEF0100EDEF0100EDEF0100EDEF0100DB
:10813000EDEF0100EDEF0100EDEF0100EDEF0100CB
:10814000EDEF010000000000000000000000000052
:10815000000000000000000000000000000000001F
:10816000000000000000000000000000000000000F
:1081700000000000000000000000000000000000FF
:1081800000000000000000000000000000000000EF
:1081900000000000000000000000000000000000DF
:1081A00000000000000000000000000000000000CF
:1081B00000000000000000000000000000000000BF
:1081C00000000000000000000000000000000000AF
:1081D000000000000000000000000000000000009F
:1081E000000000000000000000000000000000008F
:1081F000000000000000000000000000000000007F
:10820000DEE61E284CBBCE8F025B00003C00000067
:108210004C2E0300010000000080010000800100DE
:10822000FFFF0291000000000000000000000000BD
:10823000000000000000000000000000FFFFFFFF42
:108240004FF0FF0C1CEAD0521EBF1CEAD15392EA39
:108250000C0F93EA0C0F6FD01A4480EA010C400215
:1082600018BF5FEA41211ED04FF0006343EA50106F
:1082700043EA5111A0FB01310CF00040B1F5000FB1
:108280003EBF490041EAD3715B0040EA010062F160
:108290007F02FD2A1DD8B3F1004F40EBC25008BF4A
:1082A00020F00100704790F0000F0CF0004C08BF68
:1082B00049024CEA502040EA51207F3AC2BFD2F135
:1082C000FF0340EAC250704740F400004FF0000343
:1082D000013A5DDC12F1190FDCBF00F0004070477D
:1082E000C2F10002410021FA02F1C2F1200200FABB
:1082F00002FC5FEA310040F1000053EA4C0308BF82
:1083000020EADC70704792F0000F00F0004C02BFD2
:10831000400010F4000F013AF9D040EA0C0093F04D
:10832000000F01F0004C02BF490011F4000F013BA7
:10833000F9D041EA0C018FE70CEAD15392EA0C0F15
:1083400018BF93EA0C0F0AD030F0004C18BF31F080
:10835000004CD8D180EA010000F00040704790F056
:10836000000F17BF90F0004F084691F0000F91F0FA
:10837000004F14D092EA0C0F01D142020FD193EAC0
:108380000C0F03D14B0218BF084608D180EA010048
:1083900000F0004040F0FE4040F40000704740F024
:1083A000FE4040F44000704781F0004102E000BF11
:1083B00083F0004330B54FEA41044FEA430594EAA5
:1083C000050F08BF90EA020F1FBF54EA000C55EAE0
:1083D000020C7FEA645C7FEA655C00F0E2804FEAB1
:1083E0005454D4EB5555B8BF6D420CDD2C4480EA93
:1083F000020281EA030382EA000083EA010180EAC3
:10840000020281EA0303362D88BF30BD11F0004F10
:108410004FEA01314FF4801C4CEA113102D0404246
:1084200061EB410113F0004F4FEA03334CEA133381
:1084300002D0524263EB430394EA050F00F0A78099
:10844000A4F10104D5F1200E0DDB02FA0EFC22FA94
:1084500005F2801841F1000103FA0EF2801843FA88
:1084600005F359410EE0A5F120050EF1200E012A79
:1084700003FA0EFC28BF4CF0020C43FA05F3C018B7
:1084800051EBE37101F0004507D54FF0000EDCF130
:10849000000C7EEB00006EEB0101B1F5801F1BD3D9
:1084A000B1F5001F0CD349085FEA30004FEA3C0CDD
:1084B00004F101044FEA445212F5800F80F09A80D3
:1084C000BCF1004F08BF5FEA500C50F1000041EBD7
:1084D000045141EA050130BD5FEA4C0C404141EBDB
:1084E0000101013C28BFB1F5801FE9D291F0000FD6
:1084F00004BF01460020B1FA81F308BF2033A3F185
:108500000B03B3F120020CDA0C3208DD02F1140C7B
:10851000C2F10C0201FA0CF021FA02F10CE002F1B6
:108520001402D8BFC2F1200C01FA02F120FA0CFCAF
:10853000DCBF41EA0C019040E41AA2BF01EB0451F8
:10854000294330BD6FEA04041F3C1CDA0C340EDCF6
:1085500004F11404C4F1200220FA04F001FA02F339
:1085600040EA030021FA04F345EA030130BDC4F1F7
:108570000C04C4F1200220FA02F001FA04F340EAEC
:108580000300294630BD21FA04F0294630BD94F09D
:10859000000F83F4801306BF81F480110134013D84
:1085A0004EE77FEA645C18BF7FEA655C29D094EAF5
:1085B000050F08BF90EA020F05D054EA000C04BF73
:1085C0001946104630BD91EA030F1EBF002100205E
:1085D00030BD5FEA545C05D14000494128BF41F0FD
:1085E000004130BD14F580043CBF01F5801130BD61
:1085F00001F0004545F0FE4141F470014FF00000EC
:1086000030BD7FEA645C1ABF194610467FEA655C9C
:108610001CBF0B46024650EA013406BF52EA03353E
:1086200091EA030F41F4002130BD00BF90F0000F2C
:1086300004BF0021704730B54FF4806404F1320468
:108640004FF000054FF0000150E700BF90F0000F21
:1086500004BF0021704730B54FF4806404F1320448
:1086600010F0004548BF40424FF000013EE700BF18
:1086700042004FEAE2014FEA31014FEA02701FBFA8
:1086800012F07F4393F07F4F81F06051704732F0DA
:108690007F4208BF704793F07F4F04BF41F4002131
:1086A000704730B54FF4607401F0004521F000418F
:1086B0001CE700BF50EA010208BF704730B54FF019
:1086C00000050AE050EA010208BF704730B511F01A
:1086D000004502D5404261EB41014FF4806404F152
:1086E00032045FEA915C3FF4D8AE4FF003025FEAD8
:1086F000DC0C18BF03325FEADC0C18BF033202EB5C
:10870000DC02C2F1200300FA03FC20FA02F001FAB5
:1087100003FE40EA0E0021FA02F11444BDE600BF58
:1087200070B54FF0FF0C4CF4E06C1CEA11541DBF07
:108730001CEA135594EA0C0F95EA0C0F00F0DEF8D2
:108740002C4481EA030621EA4C5123EA4C5350EAB7
:10875000013518BF52EA033541F4801143F4801308
:1087600038D0A0FB02CE4FF00005E1FB02E506F099
:108770000042E0FB03E54FF00006E1FB03569CF0EE
:10878000000F18BF4EF0010EA4F1FF04B6F5007FF4
:1087900064F5407404D25FEA4E0E6D4146EB060666
:1087A00042EAC62141EA55514FEAC52040EA5E50EF
:1087B0004FEACE2EB4F1FD0C88BFBCF5E06F1ED899
:1087C000BEF1004F08BF5FEA500E50F1000041EBD0
:1087D000045170BD06F0004646EA010140EA02007D
:1087E00081EA0301B4EB5C04C2BFD4EB0C0541EA9F
:1087F000045170BD41F480114FF0000E013C00F3B4
:10880000AB8014F1360FDEBF002001F0004170BDD7
:10881000C4F10004203C35DA0C341BDC04F11404F0
:10882000C4F1200500FA05F320FA04F001FA05F27C
:1088300040EA020001F0004221F0004110EBD37049
:1088400021FA04F642EB06015EEA430E08BF20EA75
:10885000D37070BDC4F10C04C4F1200500FA04F318
:1088600020FA05F001FA04F240EA020001F00041AA
:1088700010EBD37041F100015EEA430E08BF20EA1D
:10888000D37070BDC4F1200500FA05F24EEA020E65
:1088900020FA04F301FA05F243EA020321FA04F094
:1088A00001F0004121FA04F220EA020000EBD3704B
:1088B0005EEA430E08BF20EAD37070BD94F0000F4B
:1088C0000FD101F00046400041EB010111F4801F7F
:1088D00008BF013CF7D041EA060195F0000F18BF30
:1088E000704703F00046520043EB030313F4801F6C
:1088F00008BF013DF7D043EA0603704794EA0C0F26
:108900000CEA135518BF95EA0C0F0CD050EA41063B
:1089100018BF52EA4306D1D181EA030101F00041B8
:108920004FF0000070BD50EA410606BF10461946E0
:1089300052EA430619D094EA0C0F02D150EA0136EC
:1089400013D195EA0C0F05D152EA03361CBF10462D
:1089500019460AD181EA030101F0004141F0FE41CC
:1089600041F470014FF0000070BD41F0FE4141F450
:10897000780170BD70B54FF0FF0C4CF4E06C1CEA50
:1089800011541DBF1CEA135594EA0C0F95EA0C0F05
:1089900000F0A7F8A4EB050481EA030E52EA0335C0
:1089A0004FEA013100F088804FEA03334FF08055E1
:1089B00045EA131343EA12634FEA022245EA11150E
:1089C00045EA10654FEA00260EF000419D4208BFBF
:1089D000964244F1FD0404F5407402D25B084FEA6C
:1089E0003202B61A65EB03055B084FEA32024FF418
:1089F00080104FF4002CB6EB020E75EB030E22BF75
:108A0000B61A754640EA0C005B084FEA3202B6EB34
:108A1000020E75EB030E22BFB61A754640EA5C00E3
:108A20005B084FEA3202B6EB020E75EB030E22BF73
:108A3000B61A754640EA9C005B084FEA3202B6EB74
:108A4000020E75EB030E22BFB61A754640EADC0033
:108A500055EA060E18D04FEA051545EA16754FEA95
:108A600006164FEAC30343EA52734FEAC2025FEAB3
:108A70001C1CC0D111F4801F0BD141EA00014FF042
:108A800000004FF0004CB6E711F4801F04BF014313
:108A90000020B4F1FD0C88BFBCF5E06F3FF6AFAE2F
:108AA000B5EB030C04BFB6EB020C5FEA500C50F1BF
:108AB000000041EB045170BD0EF0004E4EEA113142
:108AC00014EB5C04C2BFD4EB0C0541EA045170BD49
:108AD00041F480114FF0000E013C90E645EA060E8D
:108AE0008DE60CEA135594EA0C0F08BF95EA0C0FBB
:108AF0003FF43BAF94EA0C0F0AD150EA01347FF403
:108B000034AF95EA0C0F7FF425AF104619462CE7D9
:108B100095EA0C0F06D152EA03353FF4FDAE10463C
:108B2000194622E750EA410618BF52EA43067FF48D
:108B3000C5AE50EA41047FF40DAF52EA43057FF41D
:108B4000EBAE12E74FF0FF3C06E000BF4FF0010C28
:108B500002E000BF4FF0010C4DF804CD4FEA410C8C
:108B60007FEA6C5C4FEA430C18BF7FEA6C5C1BD059
:108B700001B050EA410C0CBF52EA430C91EA030FDA
:108B800002BF90EA020F0020704710F1000F91EA37
:108B9000030F58BF994208BF90422CBFD8176FEA05
:108BA000E37040F0010070474FEA410C7FEA6C5CD3
:108BB00002D150EA013C07D14FEA430C7FEA6C5CDA
:108BC000D6D152EA033CD3D05DF8040B704700BF06
:108BD0008446104662468C461946634600E000BF54
:108BE00001B5FFF7B7FF002848BF10F1000F01BD26
:108BF0004DF808EDFFF7F4FF0CBF012000205DF8F1
:108C000008FB00BF4DF808EDFFF7EAFF34BF012075
:108C100000205DF808FB00BF4DF808EDFFF7E0FF0E
:108C200094BF012000205DF808FB00BF4DF808ED5F
:108C3000FFF7CEFF94BF012000205DF808FB00BFC6
:108C40004DF808EDFFF7C4FF34BF012000205DF8A8
:108C500008FB00BF4FEA410212F5001215D211D5F0
:108C60006FF47873B3EB625212D94FEAC12343F029
:108C7000004343EA505311F0004F23FA02F018BFAB
:108C8000404270474FF00000704750EA013005D174
:108C900011F0004008BF6FF0004070474FF0000037
:108CA000704700BF4FEA4102B2F1E04324BFB3F581
:108CB000001CDCF1FE5C0DD901F0004C4FEAC00253
:108CC0004CEA5070B2F1004F40EB830008BF20F037
:108CD0000100704711F0804F21D113F13872BCBFF1
:108CE00001F00040704741F480114FEA5252C2F146
:108CF0001802C2F1200C10FA0CF320FA02F018BF8F
:108D000040F001004FEAC1234FEAD32303FA0CFCE1
:108D100040EA0C0023FA02F34FEA4303CCE77FEA70
:108D2000625307D150EA01331EBF4FF0FE4040F4BA
:108D30004000704701F0004040F0FE4040F4000069
:108D4000704700BF80F0004002E000BF81F00041AA
:108D500042001FBF5FEA410392EA030F7FEA226CE1
:108D60007FEA236C6AD04FEA1262D2EB1363C1BF71
:108D7000D218414048404140B8BF5B42192B88BFE0
:108D8000704710F0004F40F4000020F07F4018BF03
:108D9000404211F0004F41F4000121F07F4118BF23
:108DA000494292EA030F3FD0A2F1010241FA03FCCB
:108DB00010EB0C00C3F1200301FA03F100F00043B3
:108DC00002D5494260EB4000B0F5000F13D3B0F17B
:108DD000807F06D340084FEA310102F10102FE2AEA
:108DE00051D2B1F1004F40EBC25008BF20F001005A
:108DF00040EA03007047490040EB0000013A28BFF9
:108E0000B0F5000FEDD2B0FA80FCACF1080CB2EB7B
:108E10000C0200FA0CF0AABF00EBC25052421843F9
:108E2000BCBFD0401843704792F0000F81F400019E
:108E300006BF80F400000132013BB5E74FEA410371
:108E40007FEA226C18BF7FEA236C21D092EA030FDD
:108E500004D092F0000F08BF0846704790EA010F57
:108E60001CBF0020704712F07F4F04D1400028BF84
:108E700040F00040704712F100723CBF00F5000066
:108E8000704700F0004343F0FE4040F4000070479C
:108E90007FEA226216BF08467FEA23630146420248
:108EA00006BF5FEA412390EA010F40F4800070475B
:108EB0004FF0000304E000BF10F0004348BF404201
:108EC0005FEA000C08BF704743F0964301464FF03D
:108ED00000001CE050EA010208BF70474FF0000399
:108EE0000AE000BF50EA010208BF704711F00043DA
:108EF00002D5404261EB41015FEA010C02BF8446AA
:108F00000146002043F0B64308BFA3F18053A3F508
:108F10000003BCFA8CF2083AA3EBC25310DB01FA4F
:108F200002FC634400FA02FCC2F12002BCF1004FD3
:108F300020FA02F243EB020008BF20F00100704764
:108F400002F1200201FA02FCC2F1200250EA4C00B8
:108F500021FA02F243EB020008BF20EADC707047FE
:108F600053B94AB9002908BF00281CBF4FF0FF3190
:108F70004FF0FF3000F00CB8ADF1080C6DE904CEF5
:108F800000F008F8DDF804E0DDE9022304B07047E2
:108F9000704700BF2DE9F04786468C460846089E7C
:108FA000154674461946002B40F0C1808542B2FA3E
:108FB00082F245D94AB1C2F1200300FA02FC954081
:108FC00094402EFA03F343EA0C0C4FEA154EA8B274
:108FD000230CBCFBFEF80EFB18CC08FB00F943EA9F
:108FE0000C43994528D9EB1808F1FF3704D299456D
:108FF00002D9A8F102072B44A3EB0903A4B2B3FBE7
:10900000FEFC0EFB1C330CFB00F044EA0344A042C0
:1090100014D92C190CF1FF3304D2A04202D9ACF1BF
:1090200002032C44241A43EA07401EB1D440002313
:1090300034607360BDE8F0874746DDE76346F1E7DB
:1090400092BB431B01214FEA154EAFB2200CB3FB7C
:10905000FEFC0EFB1C330CFB07F840EA034398456B
:1090600061D9EB180CF1FF3004D2984502D9ACF16C
:1090700002002B44A3EB0803A4B2B3FBFEFC0EFBDF
:109080001C330CFB07F744EA0344A7424DD92C19C3
:109090000CF1FF3304D2A74202D9ACF102032C44F5
:1090A000E41B43EA0040C0E7C2F12003954094402E
:1090B00020FA03F12EFA03F34FEA154E9040AFB2B7
:1090C0000343B1FBFEFC0EFB1C10190C0CFB07F854
:1090D00041EA0041884522D969180CF1FF3004D2D9
:1090E000884502D9ACF102002944A1EB08019BB2EA
:1090F000B1FBFEFC0EFB1C110CFB07F743EA01431E
:109100009F420ED9EB180CF1FF3104D29F4202D9D5
:10911000ACF102012B44DB1B41EA004193E76046BE
:10912000E3E76146F7E76046A4E76346B8E78342B2
:1091300006D916B9002108467CE7C6E900E0F9E740
:10914000B3FA83F78FB9834201D3724508D8BEEBD7
:10915000020460EB030301209C461EB9002169E76D
:109160003846FAE7C6E9004CF8E7C7F1200CBB40E7
:109170000EFA07F522FA0CF42EFA0CF1BA401C4351
:1091800020FA0CF3B8404FEA144901431FFA84FE59
:10919000B3FBF9F809FB18300B0C08FB0EFA43EA95
:1091A00000439A4540D9E31808F1FF3004D29A45AC
:1091B00002D9A8F102002344A3EB0A0389B2B3FB4E
:1091C000F9F809FB183308FB0EFE41EA03418E450E
:1091D0002CD9611808F1FF3304D28E4502D9A8F1C9
:1091E0000203214443EA0040A1EB0E01A0FB0298D8
:1091F0004145CE46434602D306D14D4504D20138FF
:10920000B9EB020E68EB0403002EA7D0B5EB0E02FB
:1092100061EB030101FA0CFC22FA07F3F9404CEA76
:109220000303C6E9003199E74046C5E74346D9E75D
:1092300010F8012B11F8013B012A28BF9A42F7D000
:10924000D01A7047034611F8012B03F8012B002AAE
:10925000F9D17047034613F8012B002AFBD1181AE5
:10926000013870470000000000232DE9F04186B06E
:1092700000AFC7E9043304230D4606467B6000288F
:1092800000F0E480002900F0E180062107F11000E1
:1092900024F06DFA044698B16D4688B06A46704B6A
:1092A0004FF4C251C2E9053003236E4842F8103F23
:1092B00024F097FBAD4620461837BD46BDE8F08147
:1092C000014607F11002304624F04EFA044698B1E8
:1092D0006D4688B06A46644BC2E9053403234FF4F7
:1092E000C251604842F8103F24F07BFBAD4607F1C5
:1092F000100024F04FFADEE73A46012107F1100092
:1093000024F0FCFA044620B16D4688B06A46574BFB
:10931000E2E73B680BB3042B25D0052B0CBF0923D8
:10932000FF232B7003213B1D07F1080207F11000FA
:1093300024F012FB0646C0B16C4688B06A464C4B1E
:10934000C2E9053603234FF4C251464842F8103FA4
:1093500024F047FBA5463446C9E7002300202B70C4
:109360006860A860C3E70723DBE77B68002BF4D0C5
:1093700018333B4403F8100C0146022207F10800A1
:109380001EF052FC2B78C0B2092B08D10F282AD925
:109390006FF015046D4688B06A46364B9CE70F287F
:1093A000F6D8072B27D1344BDFF8D08033F81000E4
:1093B000F8B1FFF74BF928A3D3E90023FFF7B0F981
:1093C000FFF770FC042168607B1807F1080207F1C1
:1093D0001000796024F0C0FA064678B16C4688B077
:1093E0006A46274BACE7274BDFF89C8033F8100028
:1093F000DEE72648E6E76FF07F04CBE77B680146AF
:1094000018333B4403F8100C022207F108001EF049
:109410000BFCC0B20F2811D96C4688B06A461C4BB1
:109420004FF4C251C2E9053003230E4842F8103F01
:1094300024F0D7FAA5466FF0150458E70130C0B202
:10944000FFF73AFD4146FEF7FBFE8AE76FF0150491
:1094500031E700BFAFF300807B14AE47E17A2440D0
:10946000AF57040044050400D85704000158040015
:10947000235804004F580400981504000AD7A33F4E
:1094800073580400781504000AD723400AD7A34074
:109490009E580400000000002DE9F04706460C46E7
:1094A00092B0002900F0BD800F68002F00F0B98055
:1094B0008D68D1F8048005F10409C1450AD8042259
:1094C000AB49781926F0D0FBA8B90423F360A36850
:1094D00004331DE06B1D984510D2454580F0A180F6
:1094E0007B5D7819222B24D12146304612B0BDE88D
:1094F000F04716F005B96B1D98450ED305229D491E
:10950000781926F0B1FB30B90123F360A368053365
:109510000120A36086E0C145DFD80422964978196E
:1095200026F0A2FB0028D8D10223F3600123736147
:10953000CDE72D2B03D0A3F13002092A53D8002305
:109540000DF1080C67464FF0010EA8EB0505DFF89A
:109550002C82019310F8012B452A3CD82A2A10D9D5
:10956000A2F12B01C9B20EFA01F111EA080F01D1E3
:109570002E2A06D101333F2B0CF8012B01D0AB4230
:10958000E8D1002548336B44384601A903F8405C14
:109590001EF0D0F8DDF804A08046BA45894640D0D8
:1095A00071A3D3E90023FFF741FBB0B90022404685
:1095B0004946734BFFF730FB90B940464946FFF7E9
:1095C00049FB0823C6E906897061F360A368AAEB2A
:1095D000070A53449CE7652ACBE76FF00040F0E7A9
:1095E0004FF00040EDE75B2B58D1D4F80C90B9F563
:1095F0007A7F16D209F10103E3607B5D5B2B10D10A
:1096000001352046A56024F088FCA368984506D95A
:10961000FA5C5D2A09D10027C4F80C9036E0013BC2
:10962000A360002012B0BDE8F08700252F46013B63
:10963000A360206924F088FCA8460546002800F0B5
:10964000A3804FB3C8F80000C0F80480A368204688
:109650000133A36024F061FC21462846FFF71CFF7C
:10966000002800F09180204624F057FCD4E9012323
:10967000934280F08C802268D35C2C2BD9D05D2B58
:1096800040F08580E368013BE3607D602023C6E90C
:109690000273A36801333BE70746D7E77B2BC0D1B2
:1096A000D4F80C90B9F57A7FBBD209F10103E360DD
:1096B0007B5D7B2BB5D101352046A56024F02DFCC8
:1096C000A3689845ABD9FA5C7D2A03D10027C4F87A
:1096D0000C9047E000252F46A846013BA360206977
:1096E00024F032FCA946054600284DD0002F49D071
:1096F000C9F80000C0F80490A36820460133A360B5
:1097000024F00BFC2146284615F0FAFF00283BD038
:10971000204624F002FC2B69C5F810802B62D4E9A6
:109720000123934230D22268D25C3A2A2CD10133F1
:109730002046A36024F0F1FB21462846FFF7ACFE4B
:1097400010B3204624F0E9FBD4E9012393421ED252
:109750002268D35C2C2BC2D07D2B18D1E368013B4F
:10976000E3607D60402392E70000C0FFFFFFDF4120
:10977000E4760400502704004B270400E57F000432
:109780000000E0C10746B7E7002F3FF44AAF384674
:1097900016F0EAF845E700BFF8B5174B00AF1868B8
:1097A00022F0E5FF041E24DD4FF47A754FF40046E5
:1097B00040F2E730002165434FF47A72E5FB060181
:1097C0000023FFF7CDFB02460B460C481BF03EFD85
:1097D0006D4688B06A460A4B4FF404515361094BF9
:1097E0000948C2E90634042342F8103F1FF0FCF890
:1097F000AD46BD46F8BD00BF983701208005012069
:10980000C81504000A1B04003405040002460B4678
:1098100001481AF0C1BD00BF440C012001481AF0F4
:109820008BBE00BF440C01202DE9F041044600AF7F
:10983000006808F05BF902210122206822F0E2FEB4
:109840000146A8B16D4688B06A46354BC2E905307D
:10985000032342F8103F4FF4C25132481FF0C4F8BE
:109860003148AD4621681FF0BBF8BD46BDE8F08128
:109870000122206822F0C6FE30B16D4688B06A46EB
:10988000274BC2E90530E3E76D4688B06A462061A0
:109890000326264BDFF898805361C2F818804FF4F6
:1098A000C85142F8106F1F481FF09EF8AD46E3689C
:1098B000204A13F0010F8AB01F4B18BF13466A46A7
:1098C000D36140F201331D4913841D4BC2E90518D1
:1098D00014484FF4145142F8103F1FF085F819480E
:1098E000AD4624F0C1F838B188B06A46164BC2E9DB
:1098F000053042F8106FAEE7144810F0A3F8226864
:10990000134B88B01A606A46124B4FF4C851C2E933
:109910000538044842F8106F1FF066F8AD46A4E71A
:10992000FD15040034050400020007D21D160400D2
:109930007E1B0400EB4F04003716040040160400A1
:1099400004000001A99D010061160400EF890300D5
:109950009837012083160400F8B500AF25F0A2FE69
:1099600018BB6D4688B06A460326174B4FF4C851A2
:109970005361164B1648936142F8106F1FF034F88C
:10998000AD460DF0E7FD044678B188B06A46114B4C
:10999000C2E9053042F8106F4FF4C2510C481FF075
:1099A00023F8AD462046BD46F8BD24F012F8044623
:1099B0000028F7D06D4688B06A46074BC2E90530EB
:1099C000032342F8103FE7E7AC160400DE1A040058
:1099D00034050400CF160400E5160400F8B56D4602
:1099E00000AF88B06A460326114B4FF4C85153614B
:1099F000104B1148936142F8106F1EF0F5FF1520CF
:109A0000AD4610F005FC044678B188B06A460B4BB1
:109A10004FF4C251C2E90530074842F8106F1EF0FA
:109A2000E3FFAD462046BD46F8BDFFF7B5FEF9E7BA
:109A3000FC160400C51A04003405040012170400C3
:109A4000F8B56D4600AF88B06A460326114B4FF457
:109A5000C8515361104B1148936142F8106F1EF0CA
:109A6000C3FF0F48AD461BF0F7FB142010F0D0FBEE
:109A7000044660B188B06A460A4B4FF4C251C2E94D
:109A80000530064842F8106F1EF0AEFFAD46204686
:109A9000BD46F8BD32170400A91A040034050400BD
:109AA000800501201217040010B5064C06482168F5
:109AB0001EF096FF206808F019F8BDE8104000205D
:109AC000FFF7BEBF98370120020007D298B500AF5C
:109AD0006C46D0E9001388B06A46D3610423074876
:109AE000C2E905014FF40151054842F8103F1EF04C
:109AF0007BFFA546FFF7D8FFBD4698BD4D17040074
:109B000034050400F8B56C4600AF88B06A460325FA
:109B1000134B4FF4C8515361124B1348936142F8F1
:109B2000105F1EF061FF0020A546FFF789FF0F4E72
:109B300080B188B06A460E4B4FF4C251C2E905307D
:109B4000094842F8105F1EF04FFF0A48A5463168E9
:109B50001EF046FF316808481EF042FFBD46F8BDC2
:109B600069170400351B04003405040098370120F0
:109B700084170400020007D2010007D2F8B5314B68
:109B800000AF5A781AB39A780AB320BB58706C4663
:109B900088B06A46997003252B4B2C4E53612C4B91
:109BA0004FF4C85193612B4842F8105F1EF01CFF20
:109BB000A546306807F09AFF25F074FD68B10021D2
:109BC000306822F040FD38B3FFF7E6FD05E030B91C
:109BD0005870997001E00029D9D0BD46F8BD012226
:109BE0005A700029F5D06C4688B09A706A461A4BB4
:109BF0004FF4C8515361194B16489361032342F83F
:109C0000103F1EF0F1FE114BA546186807F098FFB3
:109C100013481BF021FBE0E7FFF712FF0028DCD020
:109C200088B06A460F4B4FF4C251C2E9053009486B
:109C300042F8105F1EF0D8FE0B48A54631681EF0B2
:109C4000CFFECAE7300A0120BF1704009837012071
:109C5000261B040034050400AB170400501B04004D
:109C60008005012084170400020007D2F8B50446DD
:109C7000134D4FF0FF304FF0FF3100AFFFF7C6FD3F
:109C8000AB78A34214D06E460E4BACB188B06A4696
:109C90000D49C2E9051303234FF4C8510B4842F89C
:109CA000103F1EF0A1FE2146B5466878FFF766FF1B
:109CB000FFF7B4FDBD46F8BD88B06A460449E8E741
:109CC000300A01205E1B0400D41704003405040090
:109CD000EC170400B0B5022800AF16D000F0FB046A
:109CE000012C134B13D16D4688B06A4611491248B6
:109CF000C2E9051303234FF4C85142F8103F1EF088
:109D000073FE2046AD46FFF7B1FFBD46B0BD6C46C1
:109D100088B06A4609490848C2E9051303234FF48D
:109D2000C85142F8103F1EF05FFE0020A546EAE74A
:109D30006E1B0400021804003405040021180400FE
:109D4000F8B50446134D4FF0FF304FF0FF3100AF30
:109D5000FFF75CFD6B78A34214D06E460E4BACB19E
:109D600088B06A460D49C2E9051303234FF4C85170
:109D70000B4842F8103F1EF037FE2046B546A97842
:109D8000FFF7FCFEFFF74AFDBD46F8BD88B06A4606
:109D90000449E8E7300A0120E91A040044180400E5
:109DA000340504005A180400F0B587B0044600AF2B
:109DB0001046052900F2C280DFE801F0031D5C8A2D
:109DC000A54B11F067FD6D468AB06A46614B106283
:109DD0005361614B4FF43451C2E9063440F20243FF
:109DE00093845E4B5E4842F8103F1EF0FDFDAD4689
:109DF0001C37BD46F0BD6C4688B06A460325594BFA
:109E00004FF4C8515361544B5548936142F8105F69
:109E10001EF0EAFD544BA546186800F073F910F1E6
:109E20003D0F0BD1514B4FF484517B6102234C48C1
:109E300007F110023B611EF0D7FDD9E728B188B0C9
:109E40006A464B4BC2E9053037E00120FFF778FF47
:109E5000CEE76C4688B06A46464B4FF4C851536112
:109E60003D4B9361032342F8103F3D481EF0BCFD7B
:109E7000A546BDE76C4688B06A4603253E4B3A4E80
:109E80005361354B364893614FF4C85142F8105F27
:109E90001EF0AAFDA546306800F0FAF918B188B0A6
:109EA0006A46364BCEE7306800F020FA0028CDD065
:109EB00088B06A463249C2E905104FF4C2512848B9
:109EC00042F8105F1EF090FDA546FFF7EDFD8FE70D
:109ED0006C4688B06A4603252A4B214853611E4BC5
:109EE0004FF4C851936142F8105F1EF07DFD1E4B88
:109EF000A546186800F060F900283FF479AF88B0F3
:109F00006A46214B9EE76C4688B06A4603251F4B84
:109F100013485361104B4FF4C851936142F8105FDE
:109F20001EF062FD104BA546186800F0DFF900280E
:109F30003FF45EAF88B06A46114B83E76C4688B049
:109F40006A46134BC2E9053103234FF4C25142F86C
:109F5000103F8AE76E180400F81A0400050000019B
:109F6000340504008C18040098370120A918040057
:109F7000CE180400E7180400001904001F1904009B
:109F80003B190400571904006719040080190400E4
:109F900092190400B0B586B04FF0FF304FF0FF319A
:109FA00000AFFFF733FC1C4B1C78FFF737FC012C8C
:109FB00016D10DF003FB044670B16D4688B06A46B9
:109FC000164BC2E9053403234FF4C251144842F83A
:109FD000103F1EF009FDAD4620461837BD46B0BD06
:109FE000022C0AD10020FFF72BFD04460028F3D0F5
:109FF0006D4688B06A460B4BE3E70B4B4FF482513A
:10A000007B610223064807F110023B616FF0850473
:10A010001EF0EAFCE0E700BF300A0120AB190400A3
:10A0200034050400CE190400F619040090B5012986
:10A0300087B000AF3AD1012B35D84FF0FF304FF049
:10A04000FF311478FFF7E2FB1A4B1C70FFF7E6FBB9
:10A05000012C0FD0022C21D0174B18487B61022312
:10A060004FF4825107F110023B611EF0BDFC6FF00E
:10A07000080010E06C4688B06A46114B5361114BE2
:10A080000E48936103234FF4C85142F8103F1EF06D
:10A09000ABFC0020A5461C37BD4690BD6C4688B081
:10A0A0006A46094BEAE76FF06800F4E76FF06C006E
:10A0B000F1E700BF300A0120F6190400340504005E
:10A0C000091A04008C1A0400471A0400012910B56B
:10A0D000144612D11A6812B96FF0680010BD4FF023
:10A0E000FF3019604FF0FF31FFF790FB044B1B78F6
:10A0F0002370FFF793FB0020F0E76FF06C00EDE7B3
:10A10000300A012070B500240646A2B0182221466C
:10A1100008A8CDE90044CDE9024425F04DFD002E0C
:10A120003DD0242221460FA80E9425F045FD24227F
:10A13000214619A8189425F03FFD1C491C4818AB6E
:10A140000EAA18F057F8A04219DD012004AA0EA9A2
:10A150001FF0A2FB0128054603D06FF03C0022B09F
:10A1600070BD10220EA9684625F041FD6846FFF734
:10A1700071F808AA0146684620F09AF910B96FF004
:10A180000D00ECE723460322304609A907F0ECFA5C
:10A1900040B1084B099A20461A601D75DFE76FF041
:10A1A0001500DCE76FF01200D9E700BFA51B040023
:10A1B000D21B04009C37012070B500240546A8B0CE
:10A1C000242221460BA80A9425F0F6FC18222146E9
:10A1D00004A825F0F1FC002D4ED02146242215A81C
:10A1E000149425F0E9FC214624221FA81E9425F092
:10A1F000E3FC244924481EAB14AA17F0FBFF041EFD
:10A2000015DD02206A4614A91FF046FB012811D172
:10A21000282214A90DEB020025F0E9FC0AA8FFF79B
:10A2200019F804AA01460AA820F042F990B96FF083
:10A230000D0003E0012C03D16FF03C0028B070BD8D
:10A2400002206A461EA91FF027FB0128F4D128220C
:10A250001EA9DFE705AC002303222146284606F0AD
:10A26000C1FD60B194E80F00084E351D85E80F0070
:10A27000012300207375E1E76FF01500DEE76FF052
:10A280001200DBE7A51B0400D21B04009C37012051
:10A2900098B500AFE0B1114C237D93B96C4688B0FE
:10A2A0006A460F4951610F499161032142F8101F1D
:10A2B0004FF4C8510C4802F0E5FDA5460020BD460C
:10A2C00098BD214607F09EFA28B100232375F5E7D3
:10A2D0006FF01500F3E76FF00D00F0E79C370120F9
:10A2E000DF1B0400301C04000C05040098B500AF0F
:10A2F000E0B1114C637D93B96C4688B06A460F4952
:10A3000051610F499161032142F8101F4FF4C85168
:10A310000C4802F0B7FDA5460020BD4698BD211DA2
:10A3200006F04AFE28B100236375F5E76FF01500CB
:10A33000F3E76FF00D00F0E79C370120FD1B0400F0
:10A340001B1C04000C05040010B523F0E6F80146C0
:10A3500004481EF0C0FBBDE8104000220023024864
:10A360001AF074BF541C0400E0050120F0B587B05A
:10A37000037804465A1E00AF0D2A00F2F380DFE88E
:10A3800012F00E001700320034004B006F00800006
:10A390008200880084008600E300EF00E900774B2C
:10A3A0007B6102234FF486513B6107F1100216E0F6
:10A3B0000225734B4FF486517B61724807F11002FE
:10A3C0003D611EF01CFB70481AF046FF237903B371
:10A3D0006E4B4FF48451C7E9045307F110026948EA
:10A3E0001EF00DFB15E06A4BDAE76A4B07F110022D
:10A3F0007B6102234FF486513B6162481EF0FFFAF5
:10A4000065481AF029FF4FF4203200235E481AF005
:10A410001DFF1C37BD46F0BD6D46604B07F11002B5
:10A420007B6102234FF486513B6156481EF0E7FAE8
:10A43000D4E90406D4E902318CB06A465362584B21
:10A44000584C9362584BC2E90701C2E905464FF4E4
:10A4500063514C4842F8103F1EF0D1FAAD46D8E7A0
:10A460006C4688B083886A465049C2E905130323C5
:10A470004FF4C65142F8103F42481EF0C0FAA546BC
:10A48000C7E74B4B8CE74B4B8AE74B4B88E74B4B73
:10A4900086E76E4602254A4B4FF486517B6107F1F1
:10A4A000100238483D611EF0AAFA13F0E7FF364863
:10A4B0001AF0D2FE237913F0060436D0414B31480E
:10A4C0004FF48651C7E9045307F110021EF097FAC2
:10A4D00001200AF0A1FEE0B188B06A463A4BC2E919
:10A4E000053003234FF4C251264842F8103F1EF0B6
:10A4F00086FAB546354B4FF48251C7E904532148DB
:10A5000007F110021EF07BFA1EF077FA002002F02D
:10A5100021F901200AF06EFE00283FF47AAF88B0DE
:10A520006A462B4BC2E90530DBE7DB070AD5294B2E
:10A530004FF48651C7E90453124807F110021EF088
:10A540005EFAE3E7244B44E76C4688B06A4643680A
:10A5500022498AE76C4688B06A464368204984E706
:10A56000204B1DE76C4688B06A461F49C2E90513B7
:10A5700003234FF4C45142F8103F7DE7671C0400E9
:10A580007E1C0400C4040400B0050120941C0400D7
:10A59000E11C0400F31C0400E00501200C1D040074
:10A5A00001030305261D040006000002501D0400DF
:10A5B000731D0400881D04009F1D0400BE1D0400BF
:10A5C000D61D0400EC1D0400161E0400361E0400F7
:10A5D000591E0400771E0400981E0400B31E0400D8
:10A5E000D81E0400EE1E0400051F04007FB5184BA2
:10A5F000994205D00133994215D007B05DF804FBAC
:10A60000144B04AA059302234FF486511248049375
:10A610001EF0F5F94FF420320023104807B05DF822
:10A6200004EB1AF013BE0E4B4FF486510593022330
:10A6300004AA094804931EF0E2F913F01FFF07482B
:10A640001AF00AFE074807B05DF804EB1AF004BEE2
:10A65000010014F1241F0400C4040400B00501200B
:10A66000451F0400E005012090B587B06C4600AF9F
:10A670001A4B1B487B6102234FF4865107F11002ED
:10A680003B611EF0BCF9002014F0ECF868B188B012
:10A690006A46144B4FF4C251C2E9053003231048F7
:10A6A00042F8103F1EF0ABF9A5466C4688B06A46EA
:10A6B0000D4B4FF4C65153611E2393610323084889
:10A6C00042F8103F1EF09BF94FF47022A54600237C
:10A6D00006481AF0BBFD1C37BD4690BD5F1F040045
:10A6E000C4040400751F0400901F0400B00501207D
:10A6F0007FB54FF4825502260A4C0B4B2946204663
:10A7000004AA059304961EF07AF9084B20462946C0
:10A7100004AACDE904631EF072F91EF06EF9002060
:10A7200002F018F8C4040400B41F0400361E04002C
:10A7300008B5034B994201D1FFF7DAFF08BD00BF0E
:10A74000020007D22DE9F0430025D3B000AFC422A8
:10A75000294607F18400C7F8805025F02DFA4F4BA9
:10A76000C7E902557B6025F0DCF84FF47A720226C7
:10A77000A0FB020302FB0131C00B40EA41401C2256
:10A780002946F86007F1480407F12C0025F014FA77
:10A790003221204687F82C6010F0F4FE8046E0B1AC
:10A7A0006C4688B06A463E4B4FF4C251C2E9053050
:10A7B00003233C4842F8103F1EF021F9A5463A4BCE
:10A7C00007F12002C7E9086336484FF482511EF0B2
:10A7D00016F91EF012F9284624E0C8213A1D07F1A7
:10A7E0008000BC6000F086F90546E8B1E94688B013
:10A7F0006A462E4B4FF4C251C2E905300323294863
:10A8000042F8103F1EF0FBF8CD46274B25484FF489
:10A810008251C4E9046307F158021EF0F0F81EF0FB
:10A82000ECF8404601F096FF07F180031846BB6341
:10A83000FEF710FDE84688B06A46F8631C4B1948DD
:10A84000536107F1800393614FF400739383194BB5
:10A850004FF4E65142F8103F1EF0D1F807F12C00FA
:10A86000C54613F02BFC98B188B06A46124B4FF4E2
:10A87000C251C2E9053003230A4842F8103F1EF0D6
:10A88000BEF8C546084B07F15802C4E904639BE7CC
:10A8900007F5A677BD46BDE8F08300BFD21F0400D0
:10A8A000D91F0400C4040400361E0400FE1F040067
:10A8B0002020040003000001492004002DE9F0419C
:10A8C00092B000AF704C204624F0F2FE40B92168EF
:10A8D0006E481EF000F900204837BD46BDE8F08103
:10A8E000D4F80480A568D8F8003026695A010ED43F
:10A8F00067494FF47973674A67481EF0B9FB6748A8
:10A900001EF0B6FB4FF4797162481EF0AAFB336863
:10A910001A2143F08063336020462B68604A9847D1
:10A92000014628B11A2322685E481EF0D4F8D2E707
:10A93000D8F800305B010CD4554940F28233554AB7
:10A9400055481EF095FB55481EF092FB40F28231AF
:10A95000DAE733681A2113F0806FAE6914BF4FF045
:10A9600000734FF080634FF0A0722046B047266816
:10A97000014618B11A2332464B48D6E74B494C4B97
:10A980004B604FF080638B60EB6913B1012220466E
:10A9900098471A22314647481EF09DF84648474BD3
:10A9A0006D464360464B036107F03CFC4548464B0F
:10A9B0004360464B036107F035FC0224444B454895
:10A9C0004FF486517B643C6407F140021EF017F897
:10A9D00001200AF00FFCE0B188B06A463E4BC2E9A4
:10A9E000053003234FF4C2513A4842F8103F1EF09D
:10A9F00006F8AD46394B07F14002C7E91043354828
:10AA00004FF482511DF0FBFF1DF0F7FF002001F015
:10AA1000A1FE01461422381D25F0CEF83049381D1C
:10AA200013F078FF28B188B06A462E4BC2E9053092
:10AA3000D7E70146102207F1300025F0BDF82A4B78
:10AA400021467B631723BB63284B07F130003B642F
:10AA500019237B6413F032FF00283FF43CAF88B029
:10AA60006A46234B4FF4C251C2E90530032319480B
:10AA700042F8103F1DF0C3FFAD46184B07F1280206
:10AA8000C7E90A43BBE700BFF000040061200400EF
:10AA9000B820040087200400F620040013210400DD
:10AAA00011000100252104004E210400DC370120A3
:10AAB00049A3010084210400C8370120EDA501004D
:10AAC000030014F1B437012031A70100020007D2BE
:10AAD000A0210400C4040400591E0400361E040012
:10AAE0006DA30100DC210400552204003B22040078
:10AAF000102204002DE9F04196B0234B02AF14461A
:10AB0000054688462C22002107F124003B6225F0EF
:10AB100053F81E4B01217B621D4B03263B6344F21D
:10AB20002E43BB861B4B22463B641B4BFE607B6463
:10AB30001A4BF9613B604FF222637B6007F12003FF
:10AB4000BB60174B07F110003B614FF21663C7E97A
:10AB500005372B46CDF8008001F0ACFB044670B100
:10AB60006D4688B002AA0F4BC2E9053042F8106F5B
:10AB700000234FF4C2510C4802F084F9AD46204640
:10AB80005037BD46BDE8F081722204001A6008000B
:10AB90007922040085220400364404009322040034
:10ABA000CA6B04009C22040014050400F0B50024C4
:10ABB00021F00302184D194E194F0244904218D14A
:10ABC000002301F00300104482421FD112484C4080
:10ABD0005843124B4FEA70405843124B604080EA92
:10ABE00010405843104B80EA5030584380EA1040E0
:10ABF000F0BD50F8043B6B434FEA7343734363402B
:10AC00004FEAF34303EB8303DC19D7E712F8015B48
:10AC100045EA0323D8E700BF512D9ECC9335871B0F
:10AC2000646B54E66BCAEB8535AEB2C22DE9F04FCA
:10AC300091B0009302F004030293C2F3C203013304
:10AC4000840705460E46DDF868800392059340F0C0
:10AC5000F681041D30B1072909D86FF01B0011B02F
:10AC6000BDE8F08F01F00706341DC6F108064FF06D
:10AC700000094FF0040B009B4F46013B01934FF03E
:10AC8000FF324B46DA46CDF810900DB100992160A5
:10AC90000598002800F3D78098480099814203D393
:10ACA00097488142C0F0CF800399A4EB050E890735
:10ACB0004FEA9E0040F1E2804FF0000CCCE07A2891
:10ACC0005AD84B280CD8472856D829282AD82528BE
:10ACD00051D051D8202877D023384342434173E0E4
:10ACE0004C382E2848D8DFE800F06F4747474747E1
:10ACF00047474747474749474747474747474759D0
:10AD00004749495959596F496C476F47184918477E
:10AD100047807D49474749477D00002000234FF089
:10AD2000040B39E001212A38C0B201FA00F010EA20
:10AD30000E0F49D110F0625C30D110EA010343D00C
:10AD40006046013C5C44B4FBFBF40BFB04F4002DB7
:10AD500060D0AAEB050CA4446645FFF47EAF002842
:10AD60006AD1BAF1040F45D158F8040B20604FF0B6
:10AD7000040A043428E0013A002325E0019B13F87B
:10AD8000013C6C2B33D10020019B13F8023C6C2B4F
:10AD90000346C4D14FF0080BDA46D2E708F10708A2
:10ADA00028F00708073424F00704F8E802AB35B1AF
:10ADB00006982044B0423FF650AFC4E900AB0023F0
:10ADC00008344FF0080BDA46019911F8010F019190
:10ADD000002800F0BC80002B7FF471AF2528F3D150
:10ADE000012301324FF0040BEDE7184696E70020EF
:10ADF0000346A6E7BAF1080F40F09B8008F1070868
:10AE000028F00708F8E80201C4E900014FF0080A39
:10AE10000834D9E780B9BAF1040F02D108F1040867
:10AE2000A5E7BAF1080F40F0848008F1070828F080
:10AE3000070808F10808E9E705990139059158F86C
:10AE4000041B009121E7039988074AD54FF0010CB4
:10AE5000A4EB050E4FEA9E00BEF5007F1ED32949E4
:10AE600040F27B23284A29481EF002F928481EF0A8
:10AE7000FFF840F27B2124481EF0F3F80F2F0FD883
:10AE8000002D49D007F140010DEB010C0CF8200C0E
:10AE90000CF8102C04980130049021E00F2F0CD9ED
:10AEA00018494FF42073184A18481EF0E1F8194861
:10AEB0001EF0DEF84FF42071DDE7CDB107F140015F
:10AEC0000DEB010EC0B20EF8200C0EF8102CBCF1E8
:10AED000000FDFD060F07F000EF8200C09F10109AF
:10AEE0000137C5F108014FF6DA7E043406916BE7AD
:10AEF000BCF1000F10D00136F2E700BFF0FF0300F5
:10AF000094A40400524A0400C8220400F62004005D
:10AF1000F622040017230400029802360028DFD12D
:10AF20000098CDE90632FEF795F9DDE906320644D0
:10AF3000D6E740F2C523434A434944481EF098F8F7
:10AF4000514643481EF094F840F2C52193E7631B35
:10AF5000B3F5806F0CD33C4940F2D123394A3B48CA
:10AF60001EF086F83B481EF083F840F2D12182E7BC
:10AF70001DB9A6F10804E01871E6029A9B08286042
:10AF80002B709DF81030C2B1EB7085F80290B9F1CA
:10AF9000000F05D0002208A8C5F1010C97420ED180
:10AFA0004FF0000AC5F101030DF1200801930DF1E6
:10AFB000300B574512D1601B51E66B70E5E710F876
:10AFC000013B190608D504EB0C0E764503F07F0310
:10AFD000FFF443AE04F8013B0132DFE7B9F1000FA3
:10AFE00003D098F90020002A17DB029BD3B11AF88E
:10AFF0000B2004F8012B0022019B98182044864264
:10B00000FFF42BAE98F80000009904F8010B2046DD
:10B01000039224F0C4FD039A14440AF1010A08F1D2
:10B020000108C6E798F8002055F822300093029BEB
:10B03000009845F82230FEF70DF9421CDCE76FF06E
:10B040000D000CE6C8220400524A0400F620040059
:10B0500031230400462304002DE9F04F95B000AFE2
:10B060008A4604467A62BB6158B9A8494FF46573B1
:10B07000A74AA8481DF0FCFF4FF46571A4481DF0D5
:10B08000F0FFBB6F90F802B0C3F3C0033B6141B95E
:10B09000457800780BEB80002044554517D8A0EB8D
:10B0A000040AE3787B61BBF1000F02D0BB6FD807C5
:10B0B00016D47B6953BB7B6A1BB151462046BA69E3
:10B0C0009847554628465437BD46BDE8F08F461C84
:10B0D0003046FEF7BFF8013030440AF1010ADCE7E0
:10B0E000237862683B629B00FB603B6AFA6104EB79
:10B0F00083097B6A002B40F00081C8460026554634
:10B1000009EB0B0AC24551D1D94413E0BB6F990733
:10B11000D1D5237899463B629B00FB60636804EBC2
:10B120008909FB617B6A002B7AD15546BBF1000F80
:10B130004FD15E46BB6F13F0050F0CBF4FF0020BF3
:10B140004FF0010B7B6909EB430ABB6F03F002036D
:10B150007B62D145B6D019F8021B19F8013C54F8AE
:10B1600023806D4B984502D36C4B984538D33B698F
:10B17000002B42D0F8691DF076FC00283DD0E8464F
:10B180008AB06A46664B5361FB69C2E906314FF4E7
:10B1900000731384634B42F8103F00234FF41251A5
:10B1A000614801F06FFE023DC546D2E718F8013B49
:10B1B00054F82300FEF74EF8FB6F01303BB1D7F88F
:10B1C00080309E423EBFFB6F23F8160001360544D7
:10B1D00098E7BB6F13F004061CBF7E6AD944A9E749
:10B1E0003B6923B1F8691DF03EFC0028C7D1BB6F55
:10B1F000DA0705D4A5EB0B05ABE77B6A002BA8D0DB
:10B200004046FEF727F8FB6F43B1D7F880309E42E7
:10B210003FBFFA6F431C22F816300136054498E709
:10B22000BBF1000F6FD0BB6F13F004067ED0D84681
:10B23000002607F140005A46494624F0B0FC7B69DD
:10B24000D9445B007B607B6909EB4303BB60BB6F48
:10B2500003F002033B60BB68994569D1B96F63781D
:10B26000B86F890748BF002106EB030258BF4FEAB9
:10B270005801C507D2B200F1DF8010F0040F14BFEF
:10B2800040460020FB616270A070E1702046BA6900
:10B29000F9687B6A9847051EFFF614AF3B6A414682
:10B2A0002370FB69BA6963707B6984F802B0E3704C
:10B2B00007F140007B6A9847B0F10008C0F2E980CE
:10B2C000FB68AAEB0B01C91A7B684846C91ABA6920
:10B2D0007B6A98470028C0F2DE804FF0000BA8443C
:10B2E00008EB000507F1300AB345C0F0A780002144
:10B2F000BA6908467B6A9847E4E65E464FF0000864
:10B3000007F1300097E75E46D84698E75D230400D2
:10B31000C8220400F6200400F0FF030094A40400F7
:10B32000782304000400000184040400B04686E78A
:10B3300019F8021B594B19F8015C54F82500984282
:10B3400002D3574B984216D33B692BB1F8691DF0D5
:10B350008AFB00287FF47FAF3B68002B4AD00F2E7A
:10B360003ED950494FF489634F4A50481DF080FE42
:10B370004FF4896182E63B692BB1F8691DF073FBDC
:10B3800000287FF468AFBB6FDB070BD50F2E27D9E2
:10B39000444940F23E43444A44481DF069FE40F2AD
:10B3A0003E416BE6BB6F58077FF555AFB8F10F0F05
:10B3B00009D93F4940F241433B4A3C481DF058FE01
:10B3C00040F241415AE608F1280307F1280208F14A
:10B3D000010103EB020808F8105C5FFA81F83AE714
:10B3E00006F1280307F12802711C9E1806F8205C5C
:10B3F000CEB230E7B8F10F0F09D92D4940F24B43D7
:10B40000294A2A481DF034FE40F24B4136E608F145
:10B41000280307F1280208F1010003EB020C07F1F1
:10B42000500308F1020853FA80F00CF8101C5FFA80
:10B4300088F800F8105C0EE7002023E71BF80A30BC
:10B4400054F8239087F82F30FB6FFBB133F81B8043
:10B450000121BA697B6A07F12F00984700281ADB9F
:10B460000544B8F1000F06D14846FDF7F3FE00F1A0
:10B4700001081FFA88F841464846BA697B6A98472E
:10B48000002808DB05440BF1010B2DE7D7F87C8081
:10B49000DEE7454616E6054614E600BFF0FF03006A
:10B4A00094A404001B240400C8220400F620040015
:10B4B0003A240400032800B508D924F08FFD09229E
:10B4C000074B1A504FF0FF305DF804FB2822054B64
:10B4D00002FB0033D3E8AF3F002BEED00020F3E7B0
:10B4E0000C000000F037012038B504461546FFF780
:10B4F000E1FF00280DDB28236343074AD01840688A
:10B50000086015B10C3313442B6028235C43105999
:10B5100038BD0020FCE700BFE837012070B50025EA
:10B520004FF0FF334FF0FF32174818F035FF174B3D
:10B53000D3E8AF2F82B10135042D03F12803F7D1F1
:10B5400024F04CFD17224FF0FF35114B1A500E48D6
:10B5500018F0F2FF284670BD28246C43D3E8EF0FA3
:10B560000130C3E8E10F0029F8D10A4E33193251F6
:10B570005A6004F10C00304424F0E6F804F1200095
:10B58000304424F0C6F9E2E71C0C0120F03701201A
:10B590000C000000E837012010B4044610462822B1
:10B5A0005443084B1A191951506040B1C26832B166
:10B5B0000C34234440F2051210BC1DF079BA10BCC3
:10B5C000704700BFE83701202823434330B50D49B9
:10B5D00008330B44D3E8AF2F92B1541ED3E8EF5F8A
:10B5E000954204D1C3E8EC4FBCF1000FF6D1F1D184
:10B5F000012A05D12823584300230A180B50536011
:10B6000030BD00BFE8370120014B1860704700BF14
:10B61000E007012080B505460E46174698461AF009
:10B6200003FF034624F0DAFC0446DFF81890424694
:10B6300049F8003039463046A84754F8090004F06C
:10B6400011F900BF08000000F8B50F4600293BD0F3
:10B650000668012230461DF083FA01460446304652
:10B660001DF046FAC3070DD4AF23184A18491948EC
:10B670001DF0FEFC394618481DF0FAFCAF211348B6
:10B680001DF0EFFC214630461DF048FA25182946EA
:10B69000002230461DF02CFA2D1AAC420BD0B723F5
:10B6A0000A4A0E490B481DF0E3FC39460C481DF0D0
:10B6B000DFFCB721E3E7214630461DF035FA21468D
:10B6C000BDE8F8401DF071BBF8BD00BF6B2404005D
:10B6D0008C240400F62004009D240400D5240400DA
:10B6E000FB2404002DE9F8430F4606681446B268AF
:10B6F0004B1EB2F5004F34BF042108213B4010D04F
:10B70000C7F1000909EA0709494503F1FF3028BFDD
:10B71000494618420CD11F46DCB900252846BDE831
:10B72000F8838F4213D82146BDE8F8431DF07FBB54
:10B730002E494FF4A2732E4A2E481DF099FC2E4834
:10B740001DF096FC4FF4A27129481DF08AFC994621
:10B75000E2E7B2EBD40FE0D9E319591A10461DF015
:10B7600009FA014630461DF05FFA80460028D4D021
:10B77000B36809EBC005B3F5004F34BF04230823B9
:10B780001D4435447B1E1D44B5FBF7F57D43A5EBF9
:10B790000905294630461DF0E3F92C44073424F00E
:10B7A0000704A41B804507464FEAE40408D202467A
:10B7B000414630461DF072FA414630461DF0B3FA5C
:10B7C000394630461DF0AAF93844844208D2394639
:10B7D000304622461DF062FA214630461DF0A3FA9B
:10B7E0000122394630461DF09FF997E737250400BE
:10B7F0006B240400F6200400522504002DE9F74FC5
:10B8000091461F460E460468009031B93A464946B3
:10B8100003B0BDE8F04FFFF765BF3FB9FFF714FF76
:10B820004FF00008404603B0BDE8F08F02F1FF3A48
:10B830001AEA020F0ED04D4940F289134C4A4D4886
:10B840001DF016FC4C481DF013FC40F289114848CD
:10B850001DF007FCD4F808B0BBEBD70FE0D92046A9
:10B860001DF07EF90146054620461DF057F9BBF54F
:10B87000004F2CBF0822042202EBC5022244B31A57
:10B880008046F918584601931DF074F98346B9F1C2
:10B89000000F02D016EA0A0F44D1C3450ED00FD2D2
:10B8A000AB445A46294620461DF0F8F929460122A4
:10B8B00020461DF039F959461DF077FAB046B1E738
:10B8C00005EB080A0122514620461DF011F9C30775
:10B8D00028D4514620461DF021F94044584521D333
:10B8E000514620461DF089F9514620461DF016F9B3
:10B8F000ABEB080840450AD905EB0B07514620463B
:10B900003A461DF0CBF9394620461DF00CFA524656
:10B91000294620461DF0E9F90122294620461DF05E
:10B9200003F9CBE73A4649460098FFF7DBFE80462D
:10B9300000283FF475AF294620461DF0EFF8A368B4
:10B94000019AB3F5004F34BF04230823C2EBC002B1
:10B95000D21ABA42314628BF3A46404624F01FF96F
:10B9600031460098FFF770FE5CE700BF3725040002
:10B970006B240400F620040052250400B2F5802F49
:10B980002DE9F04110D2042A28D843494FF4F97325
:10B99000424A43481DF06CFB42481DF069FB4FF4DE
:10B9A000F9713E481DF05DFB0823D21ACC1D1144ED
:10B9B00024F0070421F00701091B17294FEAD106DB
:10B9C0000ED8394940F2FB13344A35481DF050FB7C
:10B9D00034481DF04DFB40F2FB11E2E70423E4E79D
:10B9E0000027046031463046A660E7601DF0CBF8C2
:10B9F0000121421D804630461DF0BCF89200D51D45
:10BA0000ED082844B0423AD8B8F1FF3F3946A2F1D8
:10BA1000100204F11000B8BF3A4624F0CDF82A46CF
:10BA2000394620461DF098F83B463A4639462046AE
:10BA30001DF069F8A6EB05082046394601221DF0E5
:10BA400073F8424629461DF087F82B463A462946A8
:10BA500020461DF058F8314620461DF07DF843463B
:10BA60003A46314620461DF04EF831462046012226
:10BA70001DF05AF82946BDE8F0411DF054B90B49B4
:10BA80004FF40373054A06481DF0F2FA05481DF00D
:10BA9000EFFA4FF4037184E76F2504006B24040070
:10BAA000F620040090250400A9250400D2250400F6
:10BAB0002DE9F84F0446A38B08461907154612D402
:10BAC000022803F0070164D120461DF0E2F988B195
:10BAD0000138042800F23481DFE810F05B00320105
:10BAE0008100D100010101280CBF43F0100143F097
:10BAF0002001A1831434204618F0A0FA002840F059
:10BB00009B819849F023984A98481DF0B1FA214644
:10BB1000B0E003F00702501F01281ED80020062ABB
:10BB20002768C4E9000014D13A4603E0E08B0130F5
:10BB3000E0831268002AF9D123F0070343F00202E0
:10BB40002046A2831DF0A5F990B342F02002A28303
:10BB50002EE023F007039AB2F2E7042A33D123F050
:10BB600007039AB22046A2831DF093F910B142F068
:10BB70002002A283A38B03F00709894540F0EA80E5
:10BB8000A18BCA0640F14F8121F01003A38301F07D
:10BB90000701D4F81880A38BB8F1000FB9DA00229E
:10BBA000276823F00703C4E9002243F00103A383BD
:10BBB000A38B03F00709894540F0CD80002FDFD02B
:10BBC0000026B24644E06A4940F21B13694A6748BE
:10BBD0001DF04EFA40F21B1166481DF042FA49B1C1
:10BBE00065494FF4AB73634A60481DF041FA4FF466
:10BBF000AB71F1E723684BB9604940F257135D4AD6
:10BC00005A481DF035FA40F25711E5E723691E68DE
:10BC10004EB95B494FF4AD73564A54481DF028FAAB
:10BC20004FF4AD71D8E70F4688464FF00609A38B55
:10BC300023F0070343F006039BB2A383A268002A04
:10BC400040F08B80002F40F08B80002E98D0BA46B9
:10BC500043F0080304F1140B5846A38318F0EEF9DF
:10BC6000002840F097803F49F0233F4A3F481DF0AD
:10BC7000FFF9594643481DF0FBF9F021AEE00229D7
:10BC800009D0414940F25D133A4A38481DF0F0F9B5
:10BC900040F25D11A0E7E78B4FB13C494FF4AF7321
:10BCA000344A32481DF0E4F94FF4AF7194E7236948
:10BCB0005E684EB9324940F261132E4A2B481DF09E
:10BCC000D7F940F2611187E7A38BB84623F0070349
:10BCD00043F004039BB24FF00409A383AEE70129AC
:10BCE00009D02B494FF4B273224A20481DF0C0F905
:10BCF0004FF4B27170E723684BB9204940F26513E5
:10BD00001C4A1A481DF0B4F940F2651164E7236932
:10BD10009E684EB91A494FF4B473164A13481DF081
:10BD2000A7F94FF4B47157E70027A38BB84623F067
:10BD3000070343F005039BB24FF00509A3837DE79A
:10BD40000B4940F26B130B4A08481DF091F940F281
:10BD50006B1141E70027002670E74FF0010A77E7F3
:10BD6000924675E7CD260400A0260400F6200400C4
:10BD7000524A0400FD2504001F2604002B2604005F
:10BD80004E260400E4260400652604007B260400F9
:10BD90008A26040085F31188BFF36F8FBAF1000F74
:10BDA0001ED1002F2FD116B120462649B0474FF0A3
:10BDB0002003EFF3118583F31288BFF36F8F58468A
:10BDC00018F02EF938BB72231F4A204920481DF075
:10BDD0004FF959461F481DF04BF972211A48FCE6ED
:10BDE000A1680029DDD00D680029DAD043464A4613
:10BDF0002046D1F804A0D0471DB12B6829461D4626
:10BE0000F2E72B46FAE7394643464A4620463F6862
:10BE10001DF06BF8C5E7584618F01EF9A38B23F008
:10BE20000803A383ACE68B067FF564AE21F0200304
:10BE3000A38301F0070147E685F31188BFF36F8FF5
:10BE4000BDE8F88F59BE0100A0260400F9260400C1
:10BE5000F62004000E270400F8B504460D4600F154
:10BE600014064FF02003EFF3118783F31288BFF31A
:10BE70006F8F304618F0D4F868B972230B4A0C491A
:10BE80000C481DF0F5F831460B481DF0F1F8722111
:10BE900006481DF0E6F8304618F0DEF8A5613A468F
:10BEA0002046BDE8F8400121FFF702BEA0260400AD
:10BEB000F9260400F62004000E2704002DE9F047BF
:10BEC00004460F461DF001F8051E67DB04F1140956
:10BED0004FF02003EFF3118A83F31288BFF36F8FC3
:10BEE000484618F09DF8804660B97223374A3849B1
:10BEF00038481DF0BDF8494637481DF0B9F87221A1
:10BF0000324840E0484618F0A7F84FF6FF72E38B3E
:10BF1000A68B934206F0070643D0022E13D1354676
:10BF20000133E383484618F089F800283FD1F02315
:10BF3000264A2A4927481DF09BF8494628481DF003
:10BF400097F8F021DCE7062E13D8DFE806F0092D7C
:10BF50001212090409006FF085054FF00008E1E7AF
:10BF600000233B60636883B9C4E9007786B1354636
:10BF7000F3E71C4917484FF4E4731B4A1DF078F8A7
:10BF80004FF4E47118481DF06CF81F606760EDE72E
:10BF9000524602212046FFF78BFD35462846BDE874
:10BFA000F0876FF00A05D8E76FF00405D5E78AF34C
:10BFB0001188BFF36F8FB8F1000FEFD00023324626
:10BFC000394620461CF091FFE8E700BFA026040098
:10BFD000F9260400F62004000E270400CD260400F4
:10BFE000E42604008A260400FD25040008B5426802
:10BFF000034602F00302022A81600AD0032A4FF0AE
:10C00000000103D0012A0AD1596006E0186859607E
:10C0100008BD186800225A6058B90020F8E70649A0
:10C0200006484523064A1DF023F8452104481DF023
:10C0300018F81BF00DFAF0E7524A0400F62004004D
:10C04000242704002DE9F3410C460646012113483C
:10C050001546A04700281ADB5C273668B04616F85C
:10C06000010B38B92A46012123460C4802B0BDE82D
:10C07000F04118471CF0BFFF60B12A4602218DF83D
:10C0800005008DF8047001A8A0470028E6D002B092
:10C09000BDE8F0812A4601214046F5E7D01B0400A7
:10C0A0002DE9F14F0A9E0546884691460121324608
:10C0B0001B481C46984700282FDB0027DFF864A0A8
:10C0C000DFF864B0B845324606D10121234617484F
:10C0D00001B0BDE8F04F184721462846FFF7B2FFF0
:10C0E00000281ADB324601215046A047002814DB05
:10C0F000334622464946284600F01AF800280CDB51
:10C1000008F1FF339F4202D301371035DAE7324698
:10C1100001215846A0470028F6DA01B0BDE8F08FAB
:10C1200047270400C3950400492704009C770400B6
:10C130002DE9F0411D464379B0F806805B08322BAB
:10C140000E46144686B001EB080753D00AD8302BB0
:10C1500037D0312B49D0222B23D06FF0150006B0F9
:10C16000BDE8F081742B04D00ED85B2B21D0662B58
:10C17000F3D116F808302A4683B104212648234615
:10C1800006B0BDE8F04118477B2BE6D10095134679
:10C19000D0E902013A46FFF783FFE0E705211F4897
:10C1A000EDE72A462146384606B0BDE8F041FFF7E4
:10C1B00049BF0095134680680A46394600F034F8B6
:10C1C000CDE751F808300C21154A0DEB01001BF0AA
:10C1D0005DFA0028C3DB0B2804DC01462A4603A8CD
:10C1E000A047BCE76FF00B00B9E72A46796856F81C
:10C1F0000800C4E72A4601210A48A0470028AEDB10
:10C200002A46796856F80800A0470028A7DB2A4686
:10C2100001210448B3E700BF4B2704005027040066
:10C22000EB1E0400D01B04002DE9F14F0A9F1D46B0
:10C23000C388044652F803A00E463A4601211A4824
:10C24000A84700282CDB63794FF0000803F0FE03B9
:10C25000B62B08BFA4680AF1FF3B20461CF082FE03
:10C260008146D04507D13A4601212B460F4801B0FF
:10C27000BDE8F04F1847E1883B462A462046711A30
:10C28000FFF756FF00280BDBC34503D84E4408F1E7
:10C290000108E6E73A4601210548A8470028F5DAF3
:10C2A00001B0BDE8F08F00BF5BA404007862040019
:10C2B0004927040010B5002486B0CDE90334089B5B
:10C2C000059303AB0093024BFFF7EAFE06B010BDE7
:10C2D0003390030038B50D4604462022002123F098
:10C2E0006BFC0022EB68E361AB68A3612B682362FF
:10C2F0006B68A26263622A6923B1591E194208BFA2
:10C3000042F0010222610122002104F12C0023F0FD
:10C3100058FA48B1054906482E23064A1CF0A8FEE3
:10C320002E2104481CF09DFE38BD00BF7C27040070
:10C33000F6200400562704002DE9F04F002789B0AD
:10C34000CDE90123436A04468B428846BA460597E5
:10C35000079753D300F114064FF02003EFF3118B2E
:10C3600083F31288BFF36F8F3046D94617F058FE1B
:10C3700058B972234A4A4B494B481CF079FE314662
:10C380004A481CF075FE72215EE0304617F064FEEC
:10C39000079A2AB1394620461CF04BFF0023079329
:10C3A00006A920461CF071FE0699054641452ED38C
:10C3B0002268236A204613F8221003EB820A21F038
:10C3C000030103F82210216842461CF082FEE36854
:10C3D0002060984216D00025304617F02FFE40B35B
:10C3E00089F31188BFF36F8F059929B1A2690AB14A
:10C3F0002046904700230593002DADD1504609B04B
:10C40000BDE8F08F236943F008032361E3E718B127
:10C4100020461CF078FEDFE7DDE90132134336D019
:10C42000039123F07CF9039988BB304617F006FE90
:10C4300068B9F0231A4A1E491B481CF019FE314600
:10C440001C481CF015FEF02115481CF00AFE8BF369
:10C450001188BFF36F8F04F12C00DDE9012318F080
:10C460007FFA05464FF02003EFF3118983F312881A
:10C47000BFF36F8F304617F0D3FD00283FF479AF3C
:10C48000B5FA85F5304617F0E7FD6D09A4E72046BB
:10C4900007AB05AA27681CF055FE05469CE700BFC0
:10C4A000A0260400F9260400F62004000E2704004C
:10C4B000CD260400E42604002DE9F0410446C369BA
:10C4C00008460E46984704F1140507464FF020032E
:10C4D000EFF3118883F31288BFF36F8F284617F0AC
:10C4E0009FFD68B97223194A19491A481CF0C0FD0A
:10C4F000294619481CF0BCFD722114481CF0B1FDFE
:10C50000284617F0A9FD33783A4643F0010333700B
:10C51000616820461CF0DDFD606020461CF0A4FE32
:10C52000284617F08BFD58B9F023084A0B490948F3
:10C530001CF09EFD29460A481CF09AFDF021DCE71C
:10C5400088F31188BFF36F8FBDE8F081A026040047
:10C55000F9260400F62004000E270400CD2604006E
:10C56000E42604002DE9F843044600F114074FF0D7
:10C570002003EFF3118883F31288BFF36F8F3846DF
:10C5800017F04EFD054668B97223344A34493548E0
:10C590001CF06EFD394634481CF06AFD72212F48AC
:10C5A0001CF05FFD384617F057FD2369A26813F0B1
:10C5B000080F02D163689A4200D9636A9B1A002B64
:10C5C0003DD0216A11F8223001EB820913F00300FB
:10C5D00038D0022803D151F82260B60805D1D80717
:10C5E0001DD44846E36998470646A168324620466E
:10C5F0001CF06FFD3146A06020461CF078FD3846E7
:10C6000017F01CFD00BBF023144A184915481CF014
:10C610002FFD394616481CF02BFDF021BFE743F0F3
:10C62000020301F82230E3694846A5689847294685
:10C63000024620461CF04DFD0025A060DFE71D46A8
:10C64000A946DCE70546FBE788F31188BFF36F8F47
:10C65000002D8CD14846BDE8F88300BFA026040019
:10C66000F9260400F62004000E270400CD2604005D
:10C67000E42604002DE9F0410446C36908460D464E
:10C68000984704F1140607464FF02003EFF3118892
:10C6900083F31288BFF36F8F304617F0C1FC68B97F
:10C6A0007223264A264927481CF0E2FC31462648D8
:10C6B0001CF0DEFC722121481CF0D3FC304617F040
:10C6C000CBFC2B786FF300032B7023699B0705D5F8
:10C6D000E268236A03EB82039D4220D12B786FF33B
:10C6E00041032B70D4E90231994204D13A462046E5
:10C6F0001CF0EFFCA060394620461CF0F8FC3046E8
:10C7000017F09CFC80B9F0230C4A10490D481CF02E
:10C71000AFFC31460E481CF0ABFCF021CBE72B6898
:10C7200067F39F032B60EAE788F31188BFF36F8FED
:10C7300004F12C00BDE8F04118F0CEB8A0260400AA
:10C74000F9260400F62004000E270400CD2604007C
:10C75000E4260400044608B54FF02002EFF31183ED
:10C7600082F31288BFF36F8F0AF0B4FE204603F005
:10C770002FF803481CF0AFF902F09AFAFCE700BF6B
:10C78000852704000122024B0020C3F84025704792
:10C790000090034020B1034B800143F00103184790
:10C7A000704700BFE006040021F00DBC30B5002248
:10C7B00089B00F490F4823F0FBF800220023002422
:10C7C000CDE906230E230C4DCDE903344FF400626E
:10C7D0002846CDE90144094B0949009417F056FB5E
:10C7E0000849284622F0A1FF204609B030BD00BF0D
:10C7F0004DC90100B0170120200F012025CC0100F8
:10C80000507D0120B22704002DE9F0470446074679
:10C810004FF00109DFF8508014B93846BDE8F087C1
:10C8200094FAA4F5B5FA85F509FA05F32E0108EB9B
:10C8300005156FEA030A24EA03042B7B002BEBD0D7
:10C8400058F806301B694BB94644736804222846E1
:10C85000196807EA0A0700F0EFFADDE7284698476B
:10C860000028D9D1F0E700BF7C0604002DE9F0478D
:10C87000DFF8B8902E4C8046A9EB04039F2B0F469F
:10C880000BD92C4940F219132B4A2C481CF0F0FB11
:10C8900040F2191128481CF0E4FB29481CF02DFD3A
:10C8A000064660B300252846BDE8F087237B73B1B8
:10C8B0002368DB680BB12046984723681B69B3B92E
:10C8C000636804222046196800F0B6FA0136103475
:10C8D0004C4518D91B494FF49373174A17481CF05D
:10C8E000C7FB19481CF0C4FB4FF49371D2E72046F4
:10C8F00098470028E4D00AFA06F31D43E6E7054608
:10C900004FF0010AE4E7D1D3B8F1000FCBD0002DEE
:10C91000C8D02846FFF778FF0546002FF7D0002142
:10C920004FF4A47019F04CFDF1E700BF8C06040031
:10C930007C060400E7270400BA270400F620040060
:10C940009C3801200B2804002C280400014817F013
:10C95000C3BF00BF480D0120014B53F820007047B2
:10C960008C09040008B5034608462BB1044A13603D
:10C9700000F0A8FD002008BD6FF01500FBE700BF28
:10C98000E407012010B5044C237813B9034817F0CD
:10C99000A3FF0123237010BD204C0120480D01206E
:10C9A00010B5044606481CF0A8FC3CB1054BD3E882
:10C9B000EF1F0139C3E8E21F002AF8D110BD00BF04
:10C9C000943801209838012000200146034BD3E819
:10C9D000EF0FC3E8E21F002AF9D170479438012015
:10C9E00070B5FFF7F1FF05460F4C104EB44219D950
:10C9F0000F4940F2D1130F4A0F481CF039FB0F4882
:10CA00001CF036FB40F2D1110A481CF02AFB636887
:10CA10005B792BB123685B6813B1294620469847A0
:10CA20001034E3E7F3D370BD7C0604008C060400E9
:10CA30000B280400BA270400F62004002C28040068
:10CA400010B5044C04492046FFF744FC034B1C601E
:10CA500010BD00BF340B0120780904008C38012080
:10CA600008B50023074A4FF400411370064A0748EF
:10CA70001360074A1360FFF775FFBDE80840FFF732
:10CA8000DFBF00BF214C012094380120F792030042
:10CA9000983801200146002200230148FFF74CBCD2
:10CAA000340B01200148FFF75DBD00BF340B0120AE
:10CAB000024B01461868FFF7DDBD00BF8C3801202E
:10CAC00001481CF0DEBB00BF340B012070B52E4BBB
:10CAD0001878002857D0FFF7E5FF054640B32B4BE9
:10CAE000D3E8EF1F0139C3E8E21F002AF8D1284C30
:10CAF000284EB44218D9284940F2C513274A28487D
:10CB00001CF0B6FA27481CF0B3FA40F2C5112348CE
:10CB10001CF0A7FA63685B7923B123682946204695
:10CB20001B6898471034E4E7F4D32846FFF7C0FFAA
:10CB30001D4B1E4C1B68002B19DD22F0F2FE4FF43A
:10CB40007A72A0FB020302FB0131C30B43EA4143AB
:10CB5000D4E900209B1A40F2E9324FEAD13161EB6F
:10CB60000001934271F1000101D3FFF739FFD4E9CD
:10CB7000003213F57A7342F10002C4E90032BDE8D5
:10CB80007040FFF79DBF70BD204C012098380120F8
:10CB90007C0604008C0604000B280400BA2704005D
:10CBA000F62004002C28040094380120A817012046
:10CBB00070B5154D297829BB0120FFF757FE134C9E
:10CBC000134EB44217D913494FF4C473124A134891
:10CBD0001CF04EFA12481CF04BFA4FF4C4710E4888
:10CBE0001CF03FFA63685B791BB1236820469B68A1
:10CBF00098471034E5E7F5D3FFF768FF0028FBD12D
:10CC000001232B7070BD00BF214C01207C06040065
:10CC10008C0604000B280400BA270400F620040048
:10CC20002C2804002DE9F047304B314FFB1A1B092B
:10CC30000BD130494FF457732F4A30481CF018FA83
:10CC40004FF457712C481CF00CFA00210846FFF7EE
:10CC50000DFE044650B340F267684FF0000923F020
:10CC6000BDF9274B274A1B58136033B1264B1B686D
:10CC7000092B02DD254817F02FFE0025DFF88CA0D8
:10CC800044B12046FFF7C0FD044618B94FF0FF3805
:10CC90004FF0FF39FFF71AFF064628B95DB9424643
:10CCA0004B46504617F05CFE3546E9E74FF0FF383B
:10CCB0004FF0FF39D3E70D4D08E0F0D22B689B69A8
:10CCC0001BB100222846114698471035BD42F4D9C1
:10CCD0000F494FF45473084A08481CF0C9F90D482D
:10CCE0001CF0C6F94FF45471ACE700BF7C06040099
:10CCF0008C0604004B280400BA270400F620040028
:10CD0000080000009038012098380120480D0120CB
:10CD10000B2804002C28040013B52B481CF0EDFA56
:10CD20002A4B1B78002B34D04FF02003EFF31184F3
:10CD300083F31288BFF36F8F254817F071F968B934
:10CD40007223244A244925481CF092F9204924489A
:10CD50001CF08EF972211F481CF083F91C4817F053
:10CD60007BF9FFF7B3FE1A4817F068F958B9F023BA
:10CD7000184A1C4919481CF07BF915491A481CF03F
:10CD800077F9F021E7E784F31188BFF36F8F02B0E2
:10CD900010BD164B1B68002BF9D050B900220023A0
:10CDA0001348CDE900234FF4004200231AF030F875
:10CDB000EDE70928EBD10E4822F006FE0D4802B03F
:10CDC000BDE8104017F088BD98380120214C0120A3
:10CDD00088380120A0260400F9260400F62004006B
:10CDE0000E270400CD260400E4260400903801201C
:10CDF000B0170120480D012010B5064B04461B68F2
:10CE000098472146A0600448FFF756FBBDE8104054
:10CE1000FFF782BFE4070120340B0120044A054BD1
:10CE20009B1AB1EBD30F34BF52F83100002070478A
:10CE3000240404007C0604000E4B10B5C31A1B1119
:10CE40000133DBB248B90C490C48DF230C4A1CF013
:10CE50000FF9DF210A481CF004F944682371436884
:10CE60009A7101224368196043685A71BDE8104005
:10CE7000FFF788BD7C060400EB280400F6200400C0
:10CE8000B32804002DE9F04F8FB0C1F34A2804AF56
:10CE90000D469146B8607B600C0DB8F1000F66D06E
:10CEA00000264FF0040B4FF00A0A07F11403C7F8ED
:10CEB0000C80C7E907667E620193CDF808B0CDF813
:10CEC00000A007F11C0332464846F968FEF7C4F893
:10CED000B0F5006F03461CD36C468AB0D9F8041035
:10CEE00004AB2B481A46C3E9050140F2FF71D96132
:10CEF0004FF400711984274B42F8103F4FF4125140
:10CF000033462548FFF7BEFFA5462C37BD46BDE892
:10CF1000F08FC0F30A0804F11700184420F007004E
:10CF200080083B60FFF7B6FD68F35325044630B335
:10CF30003B6800F11001C7E9083607F11403F961F5
:10CF4000CDE900A3CDF808B04846144AF96807F1C6
:10CF50001C03FEF781F8002811DA11491148592302
:10CF6000114A1CF085F859210F481CF07AF804F199
:10CF7000170020F007008008FFF78CFD044668F3D7
:10CF800053252A4620467B68B9681CF0E8F9BCE7BF
:10CF90000B290400040000011C0504003393030066
:10CFA00077290400F62004004A2904002DE9F04FF7
:10CFB00087B00446DDE9105ADDE912690F46934651
:10CFC0009846AEB11021334652460020CDF800906D
:10CFD000CDF81490FDF72AFE011E0ADA1F497823C6
:10CFE0001F4A20481CF044F878211D481CF039F8ED
:10CFF000314605F1170008441B4B04F007040BF001
:10D00000070BE40020F0070003EA412344EA8B14F5
:10D0100080081C430391FFF73DFD44EA0554054693
:10D0200090B18EB1334652460399CDF8009010303E
:10D03000FDF7FCFD002807DA08499223084A094851
:10D040001CF016F89221D0E743462246394628467E
:10D0500007B0BDE8F04F1CF082B900BF762904008C
:10D060004A290400F620040000FE0F000EB403B5A8
:10D0700003AB53F8042B01460448019302F03AFE37
:10D0800002B05DF804EB03B0704700BFADD0010003
:10D09000CA0605D48B064CBF02490349FFF7E6BF19
:10D0A000704700BFC32C04000072040038B54B6801
:10D0B00005461A68CB680C469A4202D108461CF015
:10D0C00074F96368D3E8EF2F511CC3E8E01F002810
:10D0D000F8D1A3689D5463681A68E3689A4209D935
:10D0E000054906487A23064A1BF0C2FF7A21044804
:10D0F0001BF0B7FF002038BDAF290400F620040064
:10D10000802904002DE9F04F89B09B46DDE91483A6
:10D110009DF84C700593169B04460D46179E06928B
:10D120000493002F00F09480042F0BD99A4940F209
:10D13000BF139A4A9A481BF09BFF40F2BF119748D1
:10D140001BF08FFF06F0080307931CF0F0F806F0C1
:10D15000020A024600284AD020469249FFF786FF7D
:10D160008146BAF1000F08D016F0440F41D12A468B
:10D1700020468D49FFF77AFF814406F0010353B141
:10D180008A4B204653F82720894B8A49002A08BF3A
:10D190001A46FFF76BFF06F00803002B55D0864BAD
:10D1A000204653F827208549FFF760FF0546069B78
:10D1B0002BB11A4620468249FFF758FF0544BBF1C0
:10D1C000000F05D05A4620467E49FFF74FFF054421
:10D1D0004D44B8F1000F4CD1049B002B61D1F307F3
:10D1E00000F1D38031462046FFF752FFC7E0814669
:10D1F000B7E7754B18680028BED0744B4FF47A7AA5
:10D200001B684FF46161B5FBF3F5B5FBF0F300FB70
:10D2100013550AFB05F5B3FBF1F2B5FBF0FE4FF039
:10D220003C0C01FB123100FB1E55B1FBFCF30AFB69
:10D2300005F5B5FBF0F50CFB131120460091CDE987
:10D2400001E56349FFF712FF96E706F00805AEE730
:10D25000BBF1010F08D1B8F1000F1CD1049B002BCA
:10D2600000F08D8000251CE0B8F1000FF6D0594881
:10D2700012E059484346224658491BF0C3FB002898
:10D280000CDA574940F21923444A45481BF0F0FE96
:10D2900040F2192153E750483D46EBE7049B002B31
:10D2A0006AD0DFF84091DFF840A1DDF81080314608
:10D2B000B8F1100F204628BF4FF010084FF0000BB8
:10D2C000FFF7E6FE5D4543DC059B514620461A7894
:10D2D000FFF7CCFE4FF0010B1BF0070F03D14946BF
:10D2E0002046FFF7C3FED84539D9059B5146204655
:10D2F00013F80B20FFF7BAFE0BF1010BBBF1100F77
:10D30000EAD14FF0000B20463849FFF7AFFE5A46EE
:10D31000059B20469A5C364B995C11F0970F08BF2D
:10D320002E223449FFF7A2FE0BF1010BBBF1100FC7
:10D330001AD01BF0070F03D149462046FFF796FE8F
:10D34000D8455A46E4D849462046FFF78FFEEBE71A
:10D3500049462046FFF78AFE0BF1010BB2E7204653
:10D360002549FFF783FEC7E7059B43440593049BCC
:10D37000B3EB0803049398D1002F7FF430AF20461D
:10D3800009B0BDE8F04F1CF010B82046084A094922
:10D39000FFF76CFE26E700BFE429040080290400A3
:10D3A000F6200400F0290400F42904009C0904007C
:10D3B000DF29040089180400B0090400192A0400B8
:10D3C0001F2A0400232A0400A4380120A0380120C9
:10D3D000FD290400C5930300ADD00100F5FC010058
:10D3E000282A0400392A0400312A04003B2A0400B8
:10D3F000FBA2040026550400372A04002DE9F04161
:10D400000F884B6805460C4690468E6886B0C7F379
:10D4100082175BB1144A9B1A43F3CF01002920DB2A
:10D420002078C0F3C200FFF7F9FC0346214651F80B
:10D43000102B6088C2F34A22002A01EB020408BFC5
:10D4400000210022C0F30B10CDE90408CDE902143D
:10D450002846314601970092FFF754FE06B0BDE81A
:10D46000F0810023E2E700BF2404040042F20F73BE
:10D4700073B58B4228BF0B460568044605216846F4
:10D480000D4A1AF003F90646636828460B225B68CA
:10D490000A491BF07DFF63683246694628465B688F
:10D4A0001BF076FF63681B2228465B6804491BF06B
:10D4B0006FFF02B070BD00BFEB1E0400592A0400CC
:10D4C0003D2A040000210123064A904206D8064A5C
:10D4D00001B901231360054B186070470121400812
:10D4E0005B00F2E740420F00A0380120A438012081
:10D4F000014B002019607047BC3801200122024B0B
:10D5000002481A701BF051BF234C0120E0090400AF
:10D510000148FFF7ABBF00BFE009040010B5064BA0
:10D520000C461868FFF718FA2146BDE8104003467C
:10D530000F220248184700BFBC380120E009040050
:10D54000F8B50D460446064F4618B44201D12846A8
:10D55000F8BD14F8011BBB680148DB699847F4E784
:10D560002C01040008B5074822F0A2F848B9064982
:10D5700006487F23064A1BF07BFD7F2104481BF0F1
:10D5800070FD08BD2C010400C32A0400F62004002D
:10D59000852A040070B5114B0D461C68DCB1104B98
:10D5A000196800238B4202DB6FF0010070BD224638
:10D5B00012F8106B864202D014460133F2E7E0689D
:10D5C00010B96FF01200F1E722F072F80028F8D0DD
:10D5D00000202C60EAE76FF00C00E7E7E807012085
:10D5E000300A040010B5044686B0074B05930223A9
:10D5F000049300234FF48251044804AAFFF742FC2D
:10D600000020606006B010BDF72A04004C0404003E
:10D61000F0B585B0054600AFC0683A1D1FF083F92C
:10D62000044698B16D4688B06A46184BC2E9053089
:10D63000032342F8103F00234FF4C2511448FFF770
:10D6400021FCAD4620461437BD46F0BD79682B6AF3
:10D650008B42F7D0E868BA6883689B6898470646AB
:10D6600088B16D4688B06A460A4BC2E9053003238B
:10D6700042F8103F4FF4C25123460548FFF702FC21
:10D680003446AD46DEE77B682B62DBE7172B0400F0
:10D690004C040400382B0400F8B58168054600AF3F
:10D6A000002948D0D0E9043601391E443144FFF73F
:10D6B000AFFF041E13DA6D4688B06A46334BC2E9E9
:10D6C00005340423D66142F8103F00234FF4015182
:10D6D0002F48FFF7D7FBAD462046BD46F8BDE868AA
:10D6E0001BF0CBFEAC68B4FBF0F300FB13445CB161
:10D6F000041BE8688368DB689847AB680179286891
:10D700002246184422F058FAAB68E8682A68234495
:10D7100081684C683146A047044620B16D4688B008
:10D720006A461C4BCBE7EB695BB92B69AA681344CB
:10D730002B610023AB600024CEE7135DDB43135560
:10D740000134AB682A689C42F7D3E86881680C68AA
:10D750003146A047044660B16D4688B06A460E4B1C
:10D76000C2E90534032342F8103F00234FF4C251AD
:10D77000AEE73246EB69A968286898470446002856
:10D78000D3D06D4688B06A46044BE9E7542B0400B9
:10D790004C040400822B0400A62B0400BC2B0400C4
:10D7A0002DE9F04788B00D46DDE9108691461F4609
:10D7B0000446C8B1C1B1BAB14FF0000A084600939F
:10D7C000CDF804A01BF059FEB7FBF0F303FB10707B
:10D7D00078B11F4B07930223069353464FF48251AF
:10D7E0001C4806AAFFF74EFB6FF00D0008B0BDE81D
:10D7F000F0876A46284618491FF099F8019B002BCC
:10D80000F2D008EB0602934205D2144B0793022391
:10D8100006930023E2E728461BF02FFEB8FBF0F347
:10D8200003FB10800028F0D1C4E90097E560206177
:10D83000A060C4F8148016B9019EA6EB0806129BDE
:10D840000020E3614FF0FF33A6612362CEE700BF03
:10D85000D02B04004C04040087940300072C040020
:10D8600008B570B909494FF4DD73094A09481BF03E
:10D87000FFFB09481BF0FCFB4FF4DD7104481BF073
:10D88000F0FBB0F89C00C0F3410008BD266C04001A
:10D890008E2C0400F6200400C22C040008B570B9D8
:10D8A000094940F20A23094A09481BF0E1FB0948EB
:10D8B0001BF0DEFB40F20A2104481BF0D2FBB0F85B
:10D8C0009C00C0F3811008BD266C04008E2C04005F
:10D8D000F6200400C22C0400084C08B5084940F2A8
:10D8E000DF13224607481BF0C3FB07481BF0C0FBB1
:10D8F00040F2DF1120461BF0B4FB00BF8E2C040069
:10D90000266C0400F6200400C22C0400F7B507467C
:10D910000E461446FDF702FE051E18DB3CB97B1EC1
:10D92000012B04D8022E17D0012E08BF0624F1B215
:10D9300001ABA2B2B8B204F0BBFE061E0EDA284656
:10D94000FDF742FE22F04AFB0F4B76421E504FF08D
:10D95000FF35284603B0F0BD1124E8E70023019805
:10D960004360C366703021F002FF01988C3021F0D3
:10D97000D0FF062C02D101981CF06BFE2846034A0A
:10D980000199FDF709FEE4E70C000000F00904002E
:10D9900037B5069D0446E3B90093002200230E49E3
:10D9A00005F0B4FB04F1700021F0E1FE04F18C00FD
:10D9B00021F0AFFF214605F1700021F0E5FE204681
:10D9C0001CF047FE05F18C0003B0BDE8304018F0B4
:10D9D0006BBE03B030BD00BF779503002DE9F74360
:10D9E0000C46DDE90A8959EA0801074645460C9EBE
:10D9F00013D014F1690F02D014F10B0F0DD168464A
:10DA000021F0B5FFDDE9002313430ED114F1690FB6
:10DA10000CBF6FF00B046FF0680422F0DFFA234BA9
:10DA200064421C504FF0FF3035E0B9F1FF3F08BFB2
:10DA3000B8F1FF3F0BD04FF47A73A5FB0332DB0B39
:10DA400043EA424332689A4294BF32603360D7F867
:10DA5000940008B11BF08DFD14F1690F35680ED1EB
:10DA60004FF4004440F2E73000214FF47A72002373
:10DA7000E5FB0401FBF774FA18F0A2FC01E00B349B
:10DA8000EED033685B00642B28BF64233360D7F883
:10DA9000940018B9002003B0BDE8F0834FF0FF32C6
:10DAA0004FF0FF331BF063FDF4E700BF0C000000F4
:10DAB00038B540F20314A14203465AD0B1F5827F33
:10DAC0000ED2042921D0B1F5817F29D0032917D0A6
:10DAD00022F084FA5F22464B1A504FF0FF3013E0D9
