:10000000D06D0020B52E00009D600000892E0000FC
:10001000892E0000892E0000892E0000892E000004
:10002000000000000000000000000000912B000014
:10003000892E000000000000892E0000892E00009B
:10004000ED2B0000ED2B0000ED2B0000ED2B000050
:10005000ED2B0000ED2B0000ED2B0000ED2B000040
:10006000ED2B0000ED2B0000ED2B0000ED2B000030
:10007000ED2B0000ED2B0000ED2B0000ED2B000020
:10008000ED2B0000ED2B0000ED2B0000ED2B000010
:10009000ED2B0000ED2B0000ED2B0000ED2B000000
:1000A000ED2B0000ED2B0000ED2B0000ED2B0000F0
:1000B000ED2B0000ED2B0000ED2B0000ED2B0000E0
:1000C000ED2B0000ED2B0000ED2B0000ED2B0000D0
:1000D000ED2B0000ED2B0000ED2B0000ED2B0000C0
:1000E000ED2B0000ED2B0000ED2B0000ED2B0000B0
:1000F000ED2B0000ED2B0000ED2B0000ED2B0000A0
:10010000ED2B0000ED2B0000ED2B0000ED2B00008F
:10011000ED2B0000ED2B0000ED2B0000ED2B00007F
:10012000ED2B0000ED2B0000ED2B0000ED2B00006F
:10013000ED2B0000ED2B0000ED2B0000ED2B00005F
:04014000ED2B0000A3
:1001440053B94AB9002908BF00281CBF4FF0FF313A
:100154004FF0FF3000F00CB8ADF1080C6DE904CE9F
:1001640000F008F8DDF804E0DDE9022304B070478C
:10017400704700BF2DE9F04786468C460846089E26
:10018400154674461946002B40F0C1808542B2FAE8
:1001940082F245D94AB1C2F1200300FA02FC95402B
:1001A40094402EFA03F343EA0C0C4FEA154EA8B21E
:1001B400230CBCFBFEF80EFB18CC08FB00F943EA49
:1001C4000C43994528D9EB1808F1FF3704D2994517
:1001D40002D9A8F102072B44A3EB0903A4B2B3FB91
:1001E400FEFC0EFB1C330CFB00F044EA0344A0426B
:1001F40014D92C190CF1FF3304D2A04202D9ACF16A
:1002040002032C44241A43EA07401EB1D4400023BD
:1002140034607360BDE8F0874746DDE76346F1E785
:1002240092BB431B01214FEA154EAFB2200CB3FB26
:10023400FEFC0EFB1C330CFB07F840EA0343984515
:1002440061D9EB180CF1FF3004D2984502D9ACF116
:1002540002002B44A3EB0803A4B2B3FBFEFC0EFB89
:100264001C330CFB07F744EA0344A7424DD92C196D
:100274000CF1FF3304D2A74202D9ACF102032C449F
:10028400E41B43EA0040C0E7C2F1200395409440D8
:1002940020FA03F12EFA03F34FEA154E9040AFB261
:1002A4000343B1FBFEFC0EFB1C10190C0CFB07F8FE
:1002B40041EA0041884522D969180CF1FF3004D283
:1002C400884502D9ACF102002944A1EB08019BB294
:1002D400B1FBFEFC0EFB1C110CFB07F743EA0143C8
:1002E4009F420ED9EB180CF1FF3104D29F4202D980
:1002F400ACF102012B44DB1B41EA004193E7604669
:10030400E3E76146F7E76046A4E76346B8E783425C
:1003140006D916B9002108467CE7C6E900E0F9E7EA
:10032400B3FA83F78FB9834201D3724508D8BEEB81
:10033400020460EB030301209C461EB9002169E717
:100344003846FAE7C6E9004CF8E7C7F1200CBB4091
:100354000EFA07F522FA0CF42EFA0CF1BA401C43FB
:1003640020FA0CF3B8404FEA144901431FFA84FE03
:10037400B3FBF9F809FB18300B0C08FB0EFA43EA3F
:1003840000439A4540D9E31808F1FF3004D29A4556
:1003940002D9A8F102002344A3EB0A0389B2B3FBF8
:1003A400F9F809FB183308FB0EFE41EA03418E45B8
:1003B4002CD9611808F1FF3304D28E4502D9A8F173
:1003C4000203214443EA0040A1EB0E01A0FB029882
:1003D4004145CE46434602D306D14D4504D20138A9
:1003E400B9EB020E68EB0403002EA7D0B5EB0E02A6
:1003F40061EB030101FA0CFC22FA07F3F9404CEA21
:100404000303C6E9003199E74046C5E74346D9E707
:100414007FB5434B434A4921C3F800264248C3F8F9
:100424000426C3F80826C3F80C26C3F81026C3F81C
:100434001426C3F81826C3F81C2605F042FD00F064
:10044400A9F83A4C204608F0F2F920B32569A668C9
:100454002B681A2143F080632B6020463368344AAA
:1004640098472046736801A9984720B92A68019BD8
:1004740053405A010FD54FF05023D3F800340BB139
:10048400DB0708D549212B4805F01BFD01F08CFE44
:10049400294802F093FA00F0EDFA054601A800F0AD
:1004A40075FD0446284600F0F5FA244B1B68A34268
:1004B40005D04521224805F004FD05F081FA039A90
:1004C4004921204805F0FDFC49211F4805F0F9FCAD
:1004D40069469DF8080000F03BF8009B039C1C440F
:1004E400019B1D8903F046FC661901F07BF801F0BD
:1004F4004BF801F065F8002383F30B8883F30A8833
:10050400625982F3088883F31488BFF36F8FBFF3B3
:100514006F8F7368984745210C4805F0D2FCFEE7BD
:10052400008001503546526ED88F0000EC880000E0
:1005340011000100F18F0000B88B000008000020BA
:100544001590000038900000679000008C90000027
:10055400024608B538B105480023452105F0B1FC31
:100564006FF0150008BD0860FCE700BFAF90000005
:1005740021B1012906D06FF015007047044B53F8E0
:1005840030007047024B03EBC0035868704700BF4C
:10059400C08B00004FF4C051014803F075BE00BF8A
:1005A400DE1B00202DE9F04FDFF8E0B1F9B038A8E8
:1005B400DDE9848916461C46869FDBF8005007F067
:1005C40029FC002138A803F073FFB8F1000F07D00D
:1005D400B9F1000F04DD4A46414638A807F01EFC75
:1005E4004FF0000833897289D6F80CA013449A445A
:1005F400C2454CD80DA938A807F054FC27B12022D5
:1006040038460DA905F07DFD0023224600933146AE
:100614004FF6FF7307A805F00CF98046002833D184
:1006240020460C9E00F010FA86422DD84FF0FF377A
:10063400DFF85C910DF1160305AA06A907A805F0D9
:1006440046F9002820DB40F09880BDF81660102E93
:1006540035D1BDF81460202E16D1334620460699B4
:1006640038AA05F03CFC78B900F004FA324680461A
:1006740038A90DA800F096F90646404600F00AFA9B
:10068400444B1B68B34217D0DBF8005078E0839BDF
:10069400AAEB0809994528BF994641464B4620468E
:1006A400829A05F01CFC0028EED14A46829938A8AB
:1006B40007F0B4FBC8449BE74FF00108BAE7012EEA
:1006C40035D1BDF81430202BDED82046069938AA3F
:1006D40005F005FC07460028D6D19DF814A0BAF110
:1006E400200F02D94FF0FF37A4E7D9F800302A4E83
:1006F4000393039B9F42F5DA1DA807F08BFB0021AF
:100704001DA803F0D5FE72681DA8126856F8081BD0
:1007140007F084FB15A91DA807F0C4FB524638A9AD
:1007240015A805F0C7FC002884D00137E1E7202E86
:1007340080D17B1C3FF47EAFD9F80030BB42D1DDC1
:10074400BDF81430B3F5807F9ED12046069938AAAF
:1007540005F0C5FB002897D100F08CF9FFB2824662
:100764003146BDF8143038AA00970DA800F016F8E9
:100774000546504600F08EF9B4E7B8F1000F83D077
:1007840000F080F9284679B0BDE8F08F040000201D
:10079400C88B000008000020CC8B00002DE9F04F2E
:1007A400DFF8F4B1ADF54D7D804629A81E469DF8CD
:1007B40058738A469146DBF8005007F0E6FA0422A3
:1007C400012129A803F0F0FD744B8CAA53F837409B
:1007D40003EBC7035B6804941B6804A81C4421460C
:1007E400302306F0F9F8002840F0CC80049B8C9A62
:1007F40013449C4240F0C68021462BAA04A806F06C
:10080400FFF8002840F0BE802EAF3A46214604A8E7
:1008140006F0F6F80390002840F0B4802BA806F008
:10082400E6F9049A2A90944240F0AC80039B019725
:100834001A4600932BA929A807F064FA002840F06F
:10084400A18029A803F0C6FD002840F09B802BA8B6
:1008540006F0CDF92A9029A807F0A1FA864240F0C3
:10086400918000F007F9B6F5807F0746DBF8005069
:1008740040F08380BAF1200F7FD149468CAA29A881
:1008840003F0CEFD0446002877D19DF82F33BC2B0E
:1008940073D1DF2605900DF5A87A0EA807F0BAFAF1
:1008A40000210EA803F004FE20220DF20F310EA841
:1008B40007F0B4FA042205A90EA807F0AFFA06A9B6
:1008C4000EA807F0EFFA202EB146A8BF4FF020097A
:1008D4009DF81730504601334A4606A9A6EB09068F
:1008E4008DF8173005F00DFC002ECA44D5DC54AA4F
:1008F400104600218CAB067813F801CB013186EA4F
:100904000C06DF2900F8016BF5D19DF8503103F096
:100914007F038DF8503112F8016B76BB0134BE2C85
:10092400F9D19DF80E32012B27D10EA807F072FAE7
:1009340031460EA803F0BCFD082219490EA807F0A1
:100944006DFA414620220EA807F068FA20220DF223
:100954000F210EA807F062FA06A90EA807F0A2FA62
:1009640000F088F8202204460DF20F3106A800F0AA
:1009740019F80546204600F08DF800F083F8384653
:1009840000F088F829A807F00CFA00F07BF8284654
:100994000DF54D7DBDE8F08F04000020CC8B0000E8
:1009A400D590000070B5094B04461D68002393429E
:1009B40005D1074B1D6800F065F8284670BDE65C5C
:1009C400C85C8642F7D10133F1E700BF0400002080
:1009D40008000020094A40000B7852F820108B428E
:1009E40009D0013052F82000834214BF4FF0FF3089
:1009F4004FF4407070474FF440707047D48B000040
:100A04001FB50F4B0C4613F8300001F0C1FA50B972
:100A14002068102381686A46103905F060FA28B10D
:100A2400206805F05BFA4FF0FF3006E010226846BC
:100A3400044905F03FFB0028F2D104B010BD00BF0B
:100A4400D48B0000C88F000013B5044604F090FF57
:100A54006A460146204604F0D3FE30B104484521DD
:100A640005F02FFA002002B010BD0098FBE700BF8C
:100A7400DD900000024B1868421C1A60704700BFEA
:100A840008020020024A1368013B1360704700BF4C
:100A940008020020034B1B68834201D004F090BF7E
:100AA400704700BF080200202DE9F04F414B8BB086
:100AB400064600200D461C68FFF75AFD08A9C0B27F
:100AC40001F066FA28B1FFF7DDFF20460BB0BDE860
:100AD400F08F2946FFF74CFD4FF02C0B09A9C0B24B
:100AE4000BFB056B01F054FA002844D02C276F430C
:100AF40006EB0708D8F8104014F010044CD1FFF7A7
:100B0400B9FF089B81460793FFF7B4FF4FF4807247
:100B14000192294A21468246CDE90344079B029467
:100B2400009220465A46FFF73DFD04465046FFF723
:100B3400B1FFFFF7A7FF4846FFF7ACFF1F4BF25981
:100B440008989A420CD1D8F80C20B8F808309B18B1
:100B540006D28268934203D2194B1B68A34222D067
:100B64002DB38268002105F0E4F9164A45211648A0
:100B740005F0A7F915E0099805F0F6F90446099877
:100B840005F0ACF90BF1FF330BF1030213F8011F6D
:100B9400A142ABD19342F9D11DB13046089904F07A
:100BA400E5FF0A4B1C68089805F098F98BE7084A9A
:100BB400DCE700BF04000020DE3300203DB8F396DC
:100BC40008000020209100002A910000000000206D
:100BD400189100007FB50D46002104462846CDE952
:100BE400021104F082FF28B32368194EB34203D1E3
:100BF400204603AA04F00DFFE36AB34204D10121A5
:100C0400204602AA04F005FFDDE90232934288BFC0
:100C14000393039BAB60039A2946204600F0BCFB78
:100C24000C4B1A68002A03DD57210B4805F049F9DB
:100C340004B070BD01A9FFF7E3FE019805F10801B6
:100C440004F0A1FEAB680198039305F047F9E2E7CD
:100C54003DB8F3966C160020529100002DE9F84F30
:100C6400884691469A460026DFF868B01A4C1B4D18
:100C74000B9B9E4201D300200FE00B9B40469F1B21
:100C8400B7F5806F28BF4FF48067124A3B4606EBE6
:100C94000A0105F024F910B10120BDE8F88F0A9982
:100CA4003B465A464846711805F02EF90028F3D100
:100CB400C4F800563E44C4F80456C4F80856C4F8B0
:100CC4000C56C4F81056C4F81456C4F81856C4F890
:100CD4001C56CDE70C120020008001503546526EA0
:100CE4002DE9F0410E4600219F4B86B043629F4B95
:100CF400044603650846FFF73BFC04F12001C0B23B
:100D040001F046F901210020FFF732FC04F14C0107
:100D1400C0B201F03DF9204604F0BCFE054668B9B6
:100D240000222046114604F05EFE054608B3002268
:100D340057218F4805F0C5F801239FE04FF48072D6
:100D440057218C4805F0BDF801239D4284F85830A2
:100D5400E6D194F85830042B8DF80F3000F29180CE
:100D6400012B00F2958000F0A880FF2384F858300E
:100D7400A3E0204600F026FA0028DDD002A804F003
:100D8400ABFE0146204604F046FF18B12A4657211F
:100D94007948CFE702A804F0A8FE80F0010102AA76
:100DA4002046C9B204F01FFE02460028BFD102A8A3
:100DB40004F09BFE054660BB204602A9FFF70AFF2C
:100DC4009DF80F3084F85830033B012B06D8284691
:100DD40000F00CF910B1FF2384F858309DF80F305F
:100DE400023B022B0BD8002000F0EAF838B1FF23B5
:100DF40084F858304521614805F063F8FEE794F81B
:100E04005830FF2BF6D00021204602AA04F0EBFD57
:100E140092E79DF80F70012F1ED1104603F038F8A9
:100E2400831E022B054614D8FFF724FE394680465C
:100E34002046FFF739FE07464046FFF72BFE504B8E
:100E44001B689F4205D04F4B1D68AF4214BF052558
:100E5400012584F858507CE7FFF70CFE0121074672
:100E64002046FFF721FE05463846FFF713FE444BA4
:100E74001B689D4214BF05239DF80F3084F8583039
:100E840067E7052B7FF471AF002000F0AFF811E0A5
:100E9400204602A9FFF79EFE94F85830DA1E012A74
:100EA40033D8002000F0A2F800287FF45EAF0020C1
:100EB40000F086F800287FF458AF94F85830FF2BE0
:100EC40005D145212D4804F0FCFF04F079FD0021F3
:100ED40094F858302C4F012B019119D0204602AAC6
:100EE40004F081FDA0B13D681022002102A805F0A4
:100EF40013F9E06C04F0F2FF206A04F0EFFFFFF74F
:100F0400C1FD284606B0BDE8F081022BD5D1CEE75D
:100F1400FFF7B0FD002180462046FFF7C5FD0546DA
:100F24004046FFF7B7FDDFF85880D8F800309D42FF
:100F3400D9D13B689D42D6D0124B1B689D42D2D07A
:100F4400019B01330193019B012B01D004F038FD77
:100F5400206A04F053FC3071236A5B683460D8F86B
:100F64000050B360C0E700BF0C0A00200C02002050
:100F7400C391000081910000EF91000019920000DC
:100F840008000020000000200400002070B50B4E73
:100F9400044660220021304605F0BEF8FFF76AFDE2
:100FA400214605463046FFF79BFE04462846FFF7D8
:100FB40071FDFFF767FD204670BD00BF0C160020D1
:100FC40013B5094B01A913F8300000F0E1FF48B94B
:100FD400019805F0ADFC0446019804F07FFF20461B
:100FE40002B010BD0124FAE7DC8B00001FB50F4BE3
:100FF40001A913F8300000F0CBFFA8B9019802A9A9
:1010040002F0F0FE044668B99DF80B30032B03D1BF
:10101400019805F05BFC0446019804F05FFF20464C
:1010240004B010BD0124F7E70124F8E7DC8B0000CD
:101034002DE9F34106460C4617461D460BB900261A
:1010440028E0184604F051FD0028F8D16946FFF75E
:10105400D7FC009838B90124009804F03FFF2046DB
:1010640002B0BDE8F08101A904F08DFC0028F2D1A2
:10107400009804F033FF3046019904F008FE736AC7
:101084005E686B79012B21D1002CD8D12B68834267
:1010940098BF002621460020FFF76AFA6946C0B2CD
:1010A40000F076FF0028D6D120233A463146009836
:1010B40004F015FF04460028CDD1002DCCD03C68A7
:1010C4000D4BE41A18BF4FF0FF34C5E7022BB6D11D
:1010D4002B68012B05D98342B1D8B4FA84F464098E
:1010E400ADE7ACD1002CD5D0012CA8D12C79023C91
:1010F40018BF0124A3E700BF3DB8F3962DE9F04FD4
:1011040007460C4685B0014600201646FFF762FCF0
:10111400051E51DB3846E46D04F02AFC5FFA84F9BD
:101124004FF0000A4FF0010B4FF0FF346B1E09FB28
:1011340003089DB9BAF1010F03DD4521204804F0ED
:10114400C0FE631C06D0FF2C2ADC40F201130134DC
:101154003460B380284605B0BDE8F08F6B1E009361
:101164004146012338460DF10F0204F0B8FE031E78
:10117400019323DB012238460DF10F0105F041FBF9
:10118400019B40B15B4501D00AF1010A9B46009DD9
:10119400A8EB0908CDE7B4F1FF3F08BF2C46F5E7FB
:1011A4000223A4F580747371631004F00104013305
:1011B400013433603471CDE70725CBE70125C9E756
:1011C4002592000038B5816A426D914208D0531CC3
:1011D4008B4205D05721144804F073FE002038BD1B
:1011E400B1F5807F1CD957211048F5E7446A056D95
:1011F40004EBC30405EBC30564686D68AC4202D01C
:1012040057210B48E8E701339A42EFD1914205D9BF
:10121400436A03EBC2035B68A342F1D10120DEE71A
:1012240000231C46F0E700BF4892000080920000B3
:10123400AF92000000B589B0022004A905F053FB69
:101244009DF81020012A41D0254B2649032A08BFC6
:101254000B469DF81320492102929DF81220224842
:1012640001929DF811200092204A04F02AFE0820E1
:1012740006A905F038FB9DF81820012A28D0184B40
:101284001849032A08BF0B469DF81B2049210292E6
:101294009DF81A20144801929DF819200092144ACE
:1012A40004F00FFE9DF81030012B13D19DF812307D
:1012B400032B0FD19DF81830012B0BD00D48492179
:1012C40004F0FFFD022009B05DF804FB0A4BC0E7FF
:1012D400094BD9E70948492104F0F3FD0020F2E75E
:1012E400DB920000E4920000F8920000EA92000011
:1012F4003993000049930000DF92000068930000D6
:1013040070B54B6814461E4A03F0FF239342064609
:101314000D4686B02FD10B68012B2CD1204604A991
:1013240002F060FD9DF81020012A26D0154B1649C5
:10133400032A08BF0B469DF81320492102929DF809
:101344001220124801929DF811200092104A04F0D4
:10135400B8FD9DF81030032B0DD12146304604F022
:1013640005FC204605F0B2FA2046A96804F019FBF2
:10137400204602F017FD06B070BD064BDBE700BF48
:1013840000010004DB920000E4920000F8920000E7
:1013940039930000DF9200002DE9F04F1646054610
:1013A40089B00C467448492104F08BFD3146284627
:1013B40004F06DFC6B6A824620465E6804F095FB7F
:1013C400E8B1E86D04F0CFFA0023AF6A013F33447B
:1013D400834201D2013FFAE7BA4510D35721674847
:1013E40004F06FFD07FB06F357210AFB066264480D
:1013F40004F067FD0123E37109B0BDE8F08F06A98D
:10140400022000F0C5FD07A9082000F0C1FD214617
:101414002846079AFFF774FF6379012B4BD157468F
:10142400DFF860B141E02268C2F1010353449F42F6
:101434003AD86B6A012A196853F8370003EBC703DB
:1014440053F8083CA0EB0109A3EB0103049311D169
:10145400079B0393E368022B08D04146284604F017
:1014640085FB22464146284604F0B6FB28460399EC
:1014740004F07CFB32464946404604F075FB049B6D
:10148400424641462846CDE90096FFF7E7FB214650
:10149400284604F037FB23680133236020B1DBF8CE
:1014A40000300133CBF80030013FDDF81880002F05
:1014B400B9D101232360022301276371BA45DDF802
:1014C400189006D2484604F009FD079804F006FD7A
:1014D40092E723689F424DD36A6AFB0052F83710A3
:1014E400083B04911168DDF81CB00391D1582A6DB2
:1014F400D0581368A0EB03082379012B38D1039B40
:101504003246C91A4846059104F02EFB0599434614
:101514004A460091284659460196FFF79FFB21460B
:10152400284604F0EFFA0223237118B1154A136810
:101534000133136032464146584604F015FBDDE999
:10154400032349469B1A28465A46CDE90086FFF7ED
:1015540085FB2146284604F0D5FA2368013323602D
:101564000123237130B1074A13680133136001E08A
:10157400022BDFD00137A1E77F930000A89300007E
:10158400D79300006C160020BFF36F8F72B6002350
:101594004FF0FF30094A03F120010133102B42F8C8
:1015A4002100F8D100234FF0FF30044A03F1600119
:1015B4000133102B42F82100F8D1704700E100E01C
:1015C400002318460649D1F89020C2F3072293421B
:1015D40000DB7047C1F89830C1F8A0000133F6E78A
:1015E40000ED00E038B501224FF0FF3400251A4B1E
:1015F40029465A60C3F84843C3F8084303F58053A7
:101604005A60C3F84843C3F80843A3F55043C3F8EA
:1016140000558022C3F80843104804F07DFD802261
:1016240029460F4804F078FD0E4B8022C3F800557C
:101634002946C3F808430C4804F06EFD802229466D
:101644000A4804F069FD0A4BC3F808454FF05023DB
:10165400C3F8084338BD00BF0040015080800050EB
:101664008081005000900050809000508091005084
:10167400007001502DE9F043079D15B91560002055
:1016840012E00324B5FBF4F404EB4407BD4218BF95
:101694000134B4F1804F09D2A40001348C4200D843
:1016A40038B96FF00B001460BDE8F0834FF0FF34DD
:1016B400F7E704460021DFF8B4E0B94203F1030C74
:1016C40004F104062BD3A942274623D201F1010CCD
:1016D400AC451F7828BF002324494FEAA70E38BF22
:1016E4005B7811F80EE0AC4584F800E001EB131EC2
:1016F4002EBF3D239B0003F03C034FEA071738BF7E
:10170400CB5C07F030071EF80770A3703D236770A9
:101714003746E3700023381A10603B70AFE71CF8BB
:10172400034C1CF8023C4FEAA4091EF8099024015A
:101734001CF8018C04F0300406F8049C0EEB131919
:1017440019F804409B0006F8034C03F03C030EEB2D
:101754009814E35C08F03F0806F8023C1EF80830D1
:10176400344606F8013C03316346A6E7969500002B
:101774002DE9F04300273C463D46DDF81CE0DFF848
:10178400288175451FD3E4BB00201460BDE8F083B5
:101794000136764533D013F806C0BCF1200FF7D0DC
:1017A400AEEB0609B9F1010FA6EB05050DD0BCF1AE
:1017B4000D0F0AD103EB060999F80190B9F10A0F4C
:1017C4006ED1751CDDE72E46E3E7BCF10A0FF8D0B5
:1017D4002DB9BCF13D0F05D10137022F0DD96FF0A2
:1017E4001500D3E71CF0800FF9D118F80C507F2DA9
:1017F400F5D03F2D01D8002FF1D10134E1E7354672
:10180400C1E74FF0060C04F00706E4080CFB06F6EB
:101814000CFB04F40736E41B04EBD60470B18C42D1
:101824000CD80027014603263C46DFF87CE0DFF8AD
:101834007C801D449D4205D10C1AA5E76FF00B0076
:101844001460A3E713F8019BA9F10A0C5FFA8CFC5E
:10185400BCF1160F04D848FA0CFC1CF0010FE9D0B7
:101864001EF809C00134BCF1400F08BF013E0CF062
:101874003F0C042C4CEA8717DCD17EB13C0C012EC2
:101884000C7002D101310024D4E7022E4FEA172450
:101894004C7016BF8F7002310331F4E73446C9E748
:1018A400002DA2D09BE700BF16950000F6FFBFFFF6
:1018B400014B1B68184700BF0C00002007B50B46FE
:1018C400002102460091034800F014F903B05DF8CA
:1018D40004FB00BFB51800002DE9F047058B044652
:1018E4002807904611D4022905F0070540F0CD8061
:1018F400204604F00CFA78B10138218B042811D861
:10190400DFE800F0C3106D85950001290CBF45F098
:10191400100545F02005258388F31188BFF36F8FE8
:10192400BDE8F08701F0070AAA4500F0A680002769
:10193400B9463E46A368002B00F0BD8041F0080183
:10194400218388F31188BFF36F8FA168002900F009
:10195400BB800D68002900F0B7803346524620460C
:10196400D1F80480C047002D76D02B6829461D4647
:10197400F0E701F007035A1F012A1BD8002221F0C7
:101984000701062B276889B2C4E9002209D13B4626
:1019940003E0628B013262831B68002BF9D141F0B2
:1019A40002012046218304F0B2F900287BD041F0E3
:1019B400200177E0042B0AD121F0070189B22046E7
:1019C400218304F0A4F910B141F020012183218B7B
:1019D40001F0070AAA4550D00027B946AAE72369AF
:1019E40021F0070141F00601062DD3F80090218370
:1019F4002DD1B9F1000F40D041F00801218388F3C3
:101A04001188BFF36F8F20463949C84729E021F078
:101A14000701236941F0040189B2042DD3F804902D
:101A24002183E6D000274FF0040A3E4682E721F0E6
:101A34000701236941F0050189B2052DD3F8089007
:101A44002183D6D000274FF0050A3E4672E70027CF
:101A54004FF0060A3E466DE72B4687E7B9F1000FC3
:101A6400D1D14FF02003EFF3118883F31288BFF331
:101A74006F8F238B23F008032383258BEA062ED54F
:101A840025F01003238305F007056669218B002EDA
:101A9400BFF66FAF00232768C4E9003321F00701C4
:101AA40041F001012183218B4FF0000901F0070A65
:101AB400AA457FF43FAF002F9BD041F0080121835A
:101AC40088F31188BFF36F8F002FC7D03D68394664
:101AD40033465246204604F046F92F46F4E7AB0657
:101AE4007FF51AAF25F02003238305F00705FFE6F1
:101AF400975D00002DE9F04F82464FF000098DB04C
:101B04001D46531E01910393039B58785C1C2528A2
:101B140019D100204FF0FF381E46444603460236D2
:101B2400029031780396392955D81F2914D80029F1
:101B340000F0EF8101992520D04701993078D047F2
:101B440009F10209E0E7002800F0E3810199D04798
:101B540009F101090394D7E7A1F12002192AE9D870
:101B640001A757F822F000BFD51B0000391B000065
:101B7400391B0000D51B0000391B0000551C000058
:101B8400391B0000391B0000391B0000391B000001
:101B9400A11C0000D51B0000391B0000B51C00006F
:101BA400611C0000391B00006F1C00008F1C00002A
:101BB4008F1C00008F1C00008F1C00008F1C000075
:101BC4008F1C00008F1C00008F1C00008F1C000065
:101BD40008460136A5E7582900F0EB80A1F163021D
:101BE400D7B2172FA6D8172AA4D801A757F822F0DE
:101BF4005D1E0000DB1C0000391B0000391B0000C7
:101C0400391B0000BB1C0000DB1C0000391B00005A
:101C1400391B0000BB1C0000391B0000391B0000ED
:101C2400391B0000911D0000391B0000391B000006
:101C3400311E0000391B0000DB1C0000391B0000B2
:101C4400391B0000911D0000391B0000BB1C000063
:101C540025200199D04709F1010955E7029A4FF06F
:101C6400000802F0FE020292B3E7002C0DDAB8F18C
:101C7400000F0DDA029A002A00F043810A2224EAB6
:101C8400E47402FB0414303CA3E7B8F1000FF5DB65
:101C94000A2202FB0812A2F130089AE7B8F1000FF9
:101CA40055F8042B80F22F81002A80F22E815442B1
:101CB400022202928DE7682903D1682B06D14823BA
:101CC40087E76C2902D16C2B00F02181002B7FF473
:101CD40031AF0B467DE77A2B06D1752955F8046B95
:101CE40014D14FF0000B0CE06C2BF6D04C2BF4D13C
:101CF400073525F00703752903F10805D3E9006BBF
:101D040006D120283BD1854F013C09E04FEAE67B10
:101D1400BBF1000FF5DA7642814F6BEB4B0B013CC4
:101D24000DF12D03059300230493304659460A22EE
:101D34000023FEF705FA059BB446303203F8012D63
:101D44005A460593049BBCF10A0F8B4672F10002BC
:101D540003F1FF3106460491E7D2C3F1010B30339E
:101D64000DEB0306B8F1000FA6F104066DDA029B31
:101D7400D9077DD4A8EB0B03A4EB0B0413E02B28A9
:101D84000ABF684F684F04F1FF34C9E770290FD1C7
:101D940055F8042B0023FAB96FF004034FF0050B38
:101DA400614F624E053C029A920770D4A04666E0E9
:101DB40078216C2B03D1002355F8042B08E04C2B1D
:101DC400F9D1073525F007031D465B6855F8082B44
:101DD400232825D1880621D5554F023C002601F041
:101DE4006001A1F1390B0DF12D0E02F00F0109294B
:101DF40088BF594430310EF8011D102A4FEA1211E0
:101E040041EA03714FEA131C73F1000306F1FF303A
:101E140008D2C6F1010B06F13003A1E7454FDCE718
:101E2400414FDBE706460A466346DEE755F8046B96
:101E3400304604F038F9B8F1000F834602DB404520
:101E4400A8BFC3464FF00008374FA8EB0B03002B85
:101E540092DDA4EB0804A6E755F8043B4FF0010B10
:101E64008DF81830304F4FF0FF33013C06AE9AE73F
:101E7400A046EAE7029320200199D047029BB8F1DB
:101E84000108F7D524EAE472013C9144A41AB84647
:101E940006E0049302920199D047029A049B90466B
:101EA400424612F8010B0028F3D11A46013A15D51F
:101EB400002BACBFC7EB03077F425B46013B15D544
:101EC400BBF1000FA8BF5F4426464F44013E14D522
:101ED400002CA8BF3F1907EB080915E604930292EA
:101EE40030200199D047049B029ADFE702930199BD
:101EF40016F8010BD047029BE0E701992020D04758
:101F0400E4E70122D5E6904663E6144661E64C23F5
:101F14005FE648460DB0BDE8F08F00BFE9950000CC
:101F2400E7950000EB95000054960000F39500003F
:101F3400ED950000F0950000044608B54FF020022E
:101F4400EFF3118382F31288BFF36F8F01F012FF56
:101F5400204600F0DDFF034803F0CCFE00F096FDC0
:101F6400FCE700BFF99500000122024B0020C3F8F2
:101F7400402570470090035020B1034B800143F08B
:101F840001031847704700BFB08B000002F0D8BBB4
:101F940070B5114B0D461C68DCB1104B1968002359
:101FA4008B4202DB6FF0010070BD224612F8106B09
:101FB400864202D014460133F2E7E06810B96FF0AC
:101FC4001200F1E706F033FC0028F8D000202C6062
:101FD400EAE76FF00C00E7E710000020E88B000050
:101FE40070B588B005460C46C0B269461646FFF780
:101FF400CFFF00281BDB0098C8B143682268029316
:1020040083680195CDE903360023CDE906230593C2
:10201400C56803F063FF6DB12846084901AA04F0BE
:10202400A0F9079808B9059B236008B070BD6FF04C
:102034001500FAE76FF01200F7E700BF7B5F0000BE
:10204400014803F063BA00BFBC8C0000F7B5254E0D
:10205400306883685B6C03B19847306883685B6B56
:10206400002B31D1204C214D306883689B69002BB3
:102074002DD001220DF107019847012827D12368AB
:1020840043B92B682BB369681A688B422A6000D164
:102094006A602360164A9DF8070011887F2904D8D6
:1020A40023684F1C0B44178018720A28DCD10020C7
:1020B40023681188186059600E494D6875B9C1E9E3
:1020C400003310802060CEE798470028CAD103B0BF
:1020D400F0BD4521084803F0F4FEF8E72B604B609F
:1020E400EFE700BFC81A00207016002080160020F9
:1020F400DC1B0020781600202696000010B5044B47
:10210400044618688368E1B25B689847204610BDAE
:10211400C81A0020F8B50546164608464FF02003B5
:10212400EFF3118783F31288BFF36F8F1B490B689A
:102134004BB11B4C62689A4205D000221A60626857
:1021440062B9C4E90033174A136853B987F3118895
:10215400BFF36F8F18460B603360F8BD1360636084
:10216400F1E7D2F804C01C686345146008BF5460EA
:1021740087F31188BFF36F8F5C680B60A042D8BFF0
:1021840000F1FF3403F108012246284603F0B9FFA9
:102194000023601C2B550123DEE700BF74160020CA
:1021A4008016002078160020002313B51C46204911
:1021B400204AC1E90033C2E900331F4A4868146069
:1021C40020BBC1E900220133082B02F18802F5D1BA
:1021D4001A4C1B48206006F02AFB28B32068836849
:1021E40023B19B6C13B10022164998472068836879
:1021F4005B6B0BB1984760B1206883689B69002BC7
:10220400FAD001220DF107019847F4E702604A6011
:10221400D9E700220C4B20681A8083689B6A03B1BB
:102224009847002002B010BD4FF0FF30FAE700BF1E
:10223400801600207816002088160020C81A002076
:102244001489000051200000DC1B002041F20443EB
:102254002DE9F043EFB0ADF8083040F60613002541
:10226400ADF80C30DFF81091444BD9F800101B681E
:10227400434E4D70A3EB06080B7828465A1C62F3B4
:1022840002030B7098FA98F34B808B8808225BBA90
:102294008B8003F019FD31464246ADF8100003F07F
:1022A40013FD02271FFA88F440BA04F10A035BBA4B
:1022B4000222ADF810000DF1120106A8ADF812309B
:1022C40003F01FFF0822D9F800100DF11A00ADF831
:1022D400127003F016FFBDF8120006AB083080B28E
:1022E40031464246ADF81200184403F00AFFBDF827
:1022F40012303A461C44A0B22C4606ABADF812008C
:1023040004A9184403F0FDFEBDF81230ED213B444E
:102314009BB2ADF81230009305AA06AB32A8FFF7C2
:10232400A9F9059B174E184FADF81230BDF81230BD
:10233400A34206DC4921154803F0C3FD6FB0BDE894
:10234400F083336802215B68A4B903A89847BDF8F9
:10235400125033682D1B7C2DA8BF7C2532AA10197E
:1023640029465B6898473368012138465B682C44EA
:102374009847DBE702A8E9E7141B0020E41A0020D1
:10238400DE340020181B00205396000064960000E1
:10239400F0B583680C469A420646114685B01DD2B4
:1023A40094421DDC02AA03F02BFAB8B9DDE902530A
:1023B4001D446B1ECDE90030224649210B48E3172A
:1023C4002F1B03F07EFD3A462146304603F0B1FD53
:1023D400024640B14521064803F073FD6FF0150431
:1023E400204605B0F0BD2C46FAE700BF6C9600000D
:1023F4008B960000F0B50C68164F85B002380D4678
:10240400C4F580610090144B381903AA0131FFF719
:10241400AFF90446D0B92B68039A1344022B2B60FE
:1024240011D93E88023B76BAB6B29E420BD13246EF
:10243400B91C03F049FC30B9022E04D92B689A1E4A
:102444002A60FC540124204605B0F0BD4FF0FF344F
:10245400F9E700BF833500208639002007B5CDE9B0
:1024640000016946024806F0CAF903B05DF804FBAE
:10247400E41A002038B505460A4C0A21204606F025
:10248400C5F902210848FFF7E9FF2946204606F06E
:102494009FF920460A2106F0C1F9BDE83840FFF74C
:1024A400D5BE00BFE41A0020AD9600002DE9F04728
:1024B4004FF0FF34C6B00B460121039404940594F5
:1024C4000024024600912EA80421CDE9064405F01B
:1024D400F5FE402221461EA803F01EFE8F4B032169
:1024E4001A93052304221B938D4B04AFCDE91C37AB
:1024F4008C4B8D481F938D4B03AE219308AB2293D5
:102504008B4B05AD24938B4BCDE92901CDE92635C1
:10251400CDE92B36259107AB1AA92EA8209203F0FA
:102524005FFD38B303252A464921834803F0C9FCDB
:102534000A21824806F06AF902218148FFF78EFFDA
:1025440029467E4806F044F945B903217648FFF749
:1025540085FF7C4B7948196806F044F90A217748CD
:1025640006F05CF9FFF772FE069803F0B7FC46B07C
:10257400BDE8F0873368DDE908845A1CD2D0B8F18D
:10258400000FCFD0704A2BB93968B1F1FF3F18BFA3
:102594000B46136000211068FDF7EAFF06A9C0B2DC
:1025A400FFF7F6FC0028BDD13368664F002B53D1EA
:1025B400069E3B603046D6F8089003F0D9F9634A8A
:1025C4000146304603F01CF928B14521604803F068
:1025D40078FC0125A7E72B684B45A3D85D4A10601A
:1025E4005D4A13603A685B4D224429680698013AB3
:1025F400FFF7CEFE0028286094DB069803F0ADFCBC
:10260400B4FBF0F303FB10403A68C1B2DFF8489121
:10261400641A1319D9F800501944A94238BF00208C
:1026240049215FFA80FA4D4803F04BFC069803F009
:1026340094FC012806D9069803F08FFC013818EAA7
:10264400000F4BD1234642463968069803F05CFCE0
:1026540000287FF467AF2EE03A68934201D000254A
:1026640061E73D4A234412689342BBD95AE7A64224
:10267400069888BFE6B203F077FC402201460AA818
:1026840003F04AFD324641460AA803F03AFD3346B8
:10269400396806980AAA03F037FC054600287FF437
:1026A40042AF3B68B04433443B60A41B069803F03C
:1026B40054FCA042DBD9BAF1000F11D13B68D9F820
:1026C40000205344234493423B60C8D11F4B0698D7
:1026D4001A681146FFF75CFEC50F24E74026E5E7BC
:1026E400069803F041FC082201460AA803F014FDF1
:1026F400524608EB04010AA803F003FD069E39685C
:102704003046651803F029FC294603460AAA3046D8
:1027140003F0FAFB00287FF405AFCFE743930000F2
:1027240027850000B0960000B996000031850000AE
:10273400B59600002D850000DD960000E41A002007
:10274400AD960000DC1A0020E01A0020D41A002004
:10275400DD900000D01A0020CC1A0020BD960000A5
:10276400002307B502210093034AA423034806F07B
:1027740057F803B05DF804FBDE340020E41A0020AF
:102784002DE9F04707290446B0B070D9037813F057
:10279400050F6CD14388A1F108055BBA9BB2AB422B
:1027A40065D37A4B186083885BBA8380FFF7D8FFC0
:1027B400A088012840F0D580E37943B1012B00F0D3
:1027C400C880082030B0BDE8F047FFF753BE247836
:1027D40014F00704F5D101466D4806F017F80621F8
:1027E4006C48FFF73BFE0521694806F00BF86A4E7A
:1027F4006A4FDFF8AC8121460020D6F80090FDF73F
:10280400B7FE08A9C0B2FFF7C3FB054620BB2023CF
:10281400014610AA089803F062FB109BBB4213D137
:10282400FEF728F94023019320AB82462946009302
:1028340010AA089B2846CDE903550295FDF7B2FE80
:1028440081465046FEF726F9D8F80030089D4B45DE
:1028540012D0284603F042FB64B105214C4805F030
:10286400D9FF01214A4805F0D9FFFFF7EFFC30B04A
:10287400BDE8F0870124BEE700232A46009310A98F
:102884004FF6FF730AA802F0D4FF002846D04FF099
:10289400FF35089803F022FB14213D4805F0B6FFEC
:1028A40004214048FFF7DAFD2146394805F09AFF34
:1028B4005DB904213C48FFF7D1FD18AB0A932023EE
:1028C40033480AA90B9305F097FF07213748FFF710
:1028D400C5FDBDF85630402101939DF85530344A6A
:1028E400009320A89DF8543000F046FB169B4BB192
:1028F400421E3E2A06D820ADC0F140012D4A28448C
:1029040000F03AFB20A803F0CEFB014620A8FFF715
:10291400A5FD14211E4805F081FF9DE70DF11E035E
:1029240007AA09A90AA802F0D2FF0028AFD1BDF86E
:102934001E30102BF2D1BDF81C30202BA7D1284615
:10294400099918AA03F0CBFA051E18BF01256D4298
:102954009FE7294604F1080030B0BDE8F047FFF7CF
:10296400A5BD00287FF42DAFE379012B3FF42AAFF6
:10297400052B03D0002B7FF424AF78E7FFF77AFD13
:102984000D4805F04FFF0120FFF7D6FA141B002075
:10299400E41A0020EB960000040000203DB8F396F2
:1029A40008000020F2960000F7960000FC96000054
:1029B400049700001097000090D0030001232DE934
:1029C400F34100240646DFF8A080284D88F8003043
:1029D400274B284F0094186098F8003013B902B0C0
:1029E400BDE8F08100F052F8234BC4F58061C3F8D0
:1029F4000056C3F80456C3F80856C3F80C56C3F877
:102A04001056C3F81456C3F81856C3F81C56336846
:102A140001AA0131381998470028019B01DC002BD9
:102A2400DAD004442BB940F201439C42D4D10024AF
:102A3400D2E73B78062B09D17B78092B0BD10023F5
:102A440000936946A01EFFF7D5FC04E0042B02D1D5
:102A54007B78142BF5D00128E9D100990748023975
:102A6400FFF78EFEE3E700BF823500203546526E45
:102A7400181B002084390020008001508535002077
:102A8400014910220A60704710ED00E072B6404020
:102A940080F31188BFF36F8FBFF34F8F30BF62B6DF
:102AA400BFF36F8F704700BF72B6494081F311883E
:102AB400BFF34F8F20BF80F3118862B6704700BF09
:102AC40040B2002807DB01234109034A00F01F003C
:102AD400834042F82130704700E100E040B2002812
:102AE4000CDB01220649430900F01F008240203319
:102AF40041F82320BFF34F8FBFF36F8F704700BFA0
:102B040000E100E0054B420953F82220012300F0C4
:102B14001F0003FA00F01040704700BF00E100E01E
:102B240040B2002801F10101ACBF00F16040064B46
:102B34004FEA4111C9B2ABBF00F5614000F00F008C
:102B440080F800131954704714ED00E030BFFFF70C
:102B5400FDBF00BF0B4A08B50B4B22F07F029A6001
:102B6400BFF34F8FBFF36F8FD3F8882022F4700226
:102B7400C3F8882002F070FB02F0B2FB00F08CF97D
:102B840002F076FB0000000000ED00E01EF0040FF0
:102B94000CBFEFF30880EFF30980816911F8021C80
:102BA4000229FFD001B503F06FFA01BD04460846BF
:102BB40011461A46002383F30B880A4B2025A3F5FC
:102BC400205686F30B8883F3098863B64FF000031D
:102BD40083F31188BFF36F8FA04785F31188BFF388
:102BE4006F8FFEE7D06D002001B5EFF30580A0F1F3
:102BF40010004FEAC0000449014409C99847BDE8E0
:102C040001400249084700003C890000152C0000DF
:102C1400704700BF154B9A6A12F0007F9A6A14BF7E
:102C24001E201D2012F0807F9A6A18BF1F2012F404
:102C3400801F9A6A18BF022012F4002F9A6A18BFE4
:102C4400212012F4802F9A6A18BF222012F4003F28
:102C54009A6A18BF232012F4803F9A6A18BF24206E
:102C64006FEA02426FEA12429A62704700ED00E096
:102C740010B5194B0246986A9C6A10F4805F14BF21
:102C84001720162014F4006F9C6A18BF1820A4059E
:102C940009D5986B986A000404D51AB19A6A22F48B
:102CA40000429A6219200C4B9A6A12F4806F9A6A55
:102CB40018BF1A20D2050CD49B6A13F4005F18BF06
:102CC4001C20054A936A43F47F43936200230B70EC
:102CD40010BD1B20F5E700BF00ED00E010B51C4B54
:102CE4000246986A9C6A10F0100F14BF112010203D
:102CF40014F0080F9C6A18BF1220A40709D5586B5A
:102D0400986A000604D51AB19A6A22F080029A627F
:102D140013200F4B9A6A12F0010F9A6A18BF1420FD
:102D240012F0200F9A6A18BF1520D40658BF9B6A68
:102D3400074B9A6A920642BF5A6A22F400525A62B8
:102D44009A6A42F0FF029A6200230B7010BD00BF22
:102D540000ED00E070B5444B06465B6800258AB080
:102D6400C3F3080385F31188BFF36F8F02F07F402C
:102D7400B0F17F4F11D102F00C0008280DD01007DC
:102D84004CBF0E4601250022033B8DF80720032B80
:102D940005D8DFE803F01E5C60592E46F3E70024F3
:102DA4009DF807309BB92022314602A803F0A9F907
:102DB400099B002D53D0C3F3080222B96FEA5323B1
:102DC4006FEA43230993204602A903F05BF90AB092
:102DD40070BD254BDA6A9107E1D4DA6A002ADEDB9A
:102DE400DA6A5200DBD55A69B16942F480725A61D9
:102DF400BFF34F8FBFF36F8F5A6931F8021C22F46F
:102E040080725A61BFF34F8FBFF36F8F4DF602721A
:102E1400914209D09A6AD2B242B101200DF1070160
:102E2400FFF75CFF0446BBE73468B9E79A6A12F41B
:102E34007F4F05D001200DF10701FFF719FFF1E7DE
:102E44009B6AB3F5803FAAD3FFF7E4FEEAE70020CC
:102E54000DF10701E4E700200DF10701EDE723F48C
:102E6400FF7323F00103ADE700ED00E0044B5A6962
:102E740042F010025A615A6942F480625A61704702
:102E840000ED00E0EFF30880EFF3098101B572462D
:102E9400FFF760FF01BD00BF002320210348C218D3
:102EA4000133412B82F80013F9D1704700E100E0AF
:102EB400002080F31488BFF36F8F002080F30A880A
:102EC40080F30B88FFF762F800200E490860BFF317
:102ED4004F8F0D4880F3088800F02CF8202080F3F1
:102EE40011880A484FF40061401880F30988EFF311
:102EF40014800221084380F31488BFF36F8FFFF717
:102F040029FE000094ED00E0D06D0020D03D0020AB
:102F1400BFF34F8F0549064BCA6802F4E0621343BE
:102F2400CB60BFF34F8F00BFFDE700BF00ED00E0B3
:102F34000400FA0572B6002383F313884FF0FF30C0
:102F44000C4A03F120010133102B42F82100F8D17F
:102F540000234FF0FF30074A03F160010133102BC7
:102F640042F82100F8D162B6BFF34F8FBFF36F8FE1
:102F7400704700BF00E100E00CB410B586B009B999
:102F84000DF10B000024CDE9040109AB089A00946B
:102F940004A905480393FEF7ADFD049B1C7006B01D
:102FA400BDE8104002B070472F610000084B70B5B7
:102FB400C31A0D4607499B1004465943402206484C
:102FC40003F0DCF82B4601462046BDE87040184764
:102FD400301B0020B76DDBB6D8880000402373B5E2
:102FE4000B4C0093041B0B460D460A49A410614385
:102FF4000646094A094803F0EDF8011E05DA304691
:103004002B4602B0BDE87040184702B070BD00BF47
:10301400301B0020B76DDBB649620000D888000081
:1030240010B54FF02003EFF3118483F31288BFF33C
:103034006F8F074A136823F00201DB07116002D483
:10304400012005F085F884F31188BFF36F8F10BD5C
:10305400801B002070B50022012104460520FFF7E3
:103064005FFD0F4801F064FC0E4B984215D105F04A
:1030740021F826690C49304602F099FE00280BDB42
:10308400012535642469084904F11C0002F08FFE0F
:10309400002801DB0020E56470BD6FF00400FBE74D
:1030A400E53000000000AD0BC48C000001460C2389
:1030B40000224B4370B50848C41840331844D4E97F
:1030C4000E56A26303F047F82DB132462B46BDE8F5
:1030D40070400248184770BD301B0020D88800009B
:1030E40010B1012804D07047034B1B6C5B0701D15E
:1030F400FFF7DCBF704700BF301B002008B54FF05E
:103104002003EFF3118183F31288BFF36F8F124A08
:10311400136843F002001060DA0708D481F31188C1
:10312400BFF36F8FBDE80840012004F0D1BF4FF01A
:103134005023D3F80C24D3F80C34DB07EED507481E
:1031440003F009F881F31188BFF36F8FBDE80840DD
:103154000020FFF7ABBF00BF801B0020701B0020C6
:103164002DE9F843012207463449D1E8EF3FC1E88D
:10317400E02F0028F9D133B9314932484B60CB6094
:103184008A6002F027FE7B1E012B2DD8012F07D168
:103194004FF05023D3F81C3403F00303022B23D045
:1031A40005F064FB054608BB274B1B78F3B14FF0D1
:1031B400502302220646C3F808234FF050244FF050
:1031C4000008DFF88890D4F81824D4F81834D2030F
:1031D40016D503F00303022B01D0012F10D13DB308
:1031E40086F31188BFF36F8FBDE8F8834FF0200397
:1031F400EFF3118683F31288BFF36F8F0125DCE7A9
:103204003046FFF751FCD4F81835DBB2012BDAD184
:10321400D4F80421002AD6D0C4F80481D4F80421B7
:103224000222C4F818252022C9F88021A360CAE725
:103234004FF050230222C3F80423D5E72C1B0020AF
:103244001C1B00204C1B0020C93D002000E100E0B5
:10325400024B0B6001231360704700BF841B0020E6
:1032640000487047188D000010B504F0D1FF034CDE
:10327400206004F0CAFF6060002010BD841B0020A1
:10328400F8B50E461946304617461D4602F0E9FFCA
:10329400B8B146EA050414F0030412D14DB12B1958
:1032A400032BA6EB040006D8074AD2F80034DB0748
:1032B400FBD50020F8BD3B1B196801F02DFF043C31
:1032C400EDE76FF01500F5E70090035030B5406866
:1032D40001F01F04057BB2F5001F85B044EA4514D4
:1032E40005D1204601F0D8FD002005B030BD0025F1
:1032F400B2F5800FCDE9025514D1B3F1007F0CBFB4
:10330400042305238DF8083000232046194602AA19
:1033140001F0F2FB204B984238D10121204601F004
:1033240071FDE1E7B3F1C06F25D0B3F1007F14BFA5
:10333400012302238DF80830836823FA01F111F088
:103344000101E1D1B2F1A07FDED104F01F036209D3
:1033540003F180031DD1114A52F82330DB07D3D483
:103364000DF107052946204601F0F8FC0C4B984264
:1033740003D00395C8E70323DCE7284601F03CFDAE
:10338400054B9842F5D06FF00B00AEE76FF01500D7
:10339400ABE751F82330FFDE0000AD0B002584506D
:1033A4000400AD0B10B501F017FD044668B901F037
:1033B400EBFC084B98420AD12146074801F0C8FCAF
:1033C400224605210D20FFF7ABFB002010BD6FF056
:1033D4000400FBE70000AD0BE1330000430970B5C6
:1033E40007D10B4B596821B101250C68094E854062
:1033F40001B970BD8A682A4002D030464B689847AC
:103404001CB1236821461C46F2E72346FAE700BFB5
:103414008C1B0020EC8800002DE9FF41476801F077
:103424001F053B7B144645EA43150E4628460DF11D
:10343400070101F093FC14F4403F80460DD1284667
:1034440001F050FD3C4B984503D19DF8070001F075
:10345400CDFC002004B0BDE8F081002328461946C5
:1034640002AACDE9023301F047FB334B984214D151
:10347400804503D19DF8070001F0B8FCA3034CD5A7
:1034840040F206332340B3F5837F1AD00DD8062BC0
:1034940018D005D8B3B1022B32D06FF01500D9E79C
:1034A400B3F5807FF9D101230CE040F2022293426C
:1034B40028D0B3F5407F27D0B3F5007FEDD10223A8
:1034C40000E007238DF8083084F48033C3F300430D
:1034D400E0068DF809304CBF0323C4F340132103E5
:1034E4008DF80A3012D501237A68B3409360002224
:1034F400284602A901F0B4FB0F4B9842A9D0CCE7AF
:103504000423DFE70523DDE70323DBE7620341BF91
:1035140001237A68B340D360E9E7E3064FF0000380
:103524004CBF0324C4F340141A46284602A98DF85C
:10353400084001F0E1FADFE70000AD0B2DE9F041AE
:10354400534D544E00EB8101814202D10020BDE86D
:10355400F081046804F07F03C4F343277F2B4FEA10
:10356400144408BF4FF0FF33192C00F28280DFE8C7
:1035740004F00D13191C1F251C80808080365F8089
:10358400808080808080808062777A7DC2F80C356C
:103594005C1C5AD10430D7E7C2F814355C1CF9D04E
:1035A40000245BE0C2F80835F2E7C2F81035F5E70D
:1035B4005C1CC2F80835EDD0002404E05C1CC2F8A1
:1035C4000C35E7D001245FEA531C55D14FF0010EAE
:1035D400DFF8BCC00EFA03F8CCF80C8008E0C2F89F
:1035E4000835002FDAD15C1CD4D000240627A64667
:1035F400D0F8008008F4005CBCF1000F1CBF01246B
:103604004FF0000E03F01F0C5B093BD105EB8C0C53
:10361400DCF80032C8F3C118334043EA880343EAB4
:10362400072343EA0E0343EA4403CCF80032B1E72C
:10363400C2F80C35D5E7C2F86035B3F1FF3F046832
:10364400A8D0C4F38034002CBCD05C0917D1012469
:10365400DFF83CC004FA03FECCF808E0A646C7E74E
:10366400C2F86435E9E7C2F86835E6E7C2F86C35B4
:10367400E3E76FF085006AE70023DB60FFDE0023E9
:103684009B60FBE700230CF1800C53F82C30F5E72A
:1036940000258450F0F8FCFFF8B504460D46076990
:1036A40005F0E4F890B91F4B1B787BB16426606881
:1036B40002F0B2FFE0B9012004F09AFC013EF6D119
:1036C400F4E781F31188BFF36F8FEFE74FF0200326
:1036D400EFF3118183F31288BFF36F8F60680E4696
:1036E40002F09AFF90B981F31188BFF36F8FEDE771
:1036F4004FF02003EFF3118183F31288BFF36F8F30
:1037040060680E4602F088FF0028DAD07B69012247
:103714001D702046796902F0BFFE86F31188BFF35D
:103724006F8FF8BDC93D0020F0B54B79012B26D031
:10373400032B21D110258B79032B1DD1CE790EB10A
:10374400012E19D10A7912B1022A15D10E220B6861
:103754004468B3F5164F276867D02DD8B3F5165FC4
:1037640066D016D8B3F5966F64D00AD8B3F5967FB1
:1037740063D0B3F5167F63D06FF0850054E0002565
:10378400D9E7B3F5166F5ED0B3F5965FF4D1384B35
:103794003CE0B3F5E14F59D007D8B3F5615F57D09A
:1037A400B3F5964FE8D1334B30E047F61224A342E9
:1037B400E2D14FF4000329E0B3F5613F4AD013D8B6
:1037C400B3F5963F49D009D84DF6C024A34246D05C
:1037D400B3F5614FD0D14FF46B0317E0B3F5E13F7C
:1037E400CAD14FF0EB7311E0B3F5612F3AD008D88A
:1037F400214CA34239D0B3F5E12FBDD14FF0E8639A
:1038040004E01E4CA342B7D14FF080530469C7F8BB
:103814002435436835431B682A43C3F86C25231DAC
:1038240003C983E803000020F0BD4FF41D03EDE756
:10383400134BEBE74FF49E23E8E74FF4A033E5E79F
:103844004FF41C33E2E74FF41D23DFE70D4BDDE7B4
:103854000D4BDBE74FF06C73D8E70C4BD6E74FF416
:103864006503D3E74FF07063D0E74FF08063CDE793
:1038740000B0130000A04E0090D0030040420F009F
:103884000050270000C0750000F03A0000903A0193
:103894002DE9F7430021476806693C688146C4F86E
:1038A40000153060D7F80C8001AA404602F0D2FD22
:1038B400051E4CDB019BD8F8002019791868FFF726
:1038C4003DFE051E43DB4846311DFFF72DFF05462F
:1038D40000283CD17B68990712D506F11C0001F041
:1038E40069F81E4B984236D1307F04F10C0204F57E
:1038F400907104F07FFB0120337F984001F012F8AF
:103904000823C4F800353B7A53B9C4F81031D4F80D
:103914001031B369C4F834350123C4F83835236051
:103924007B689A075CBF4FF48073C4F804337B68E8
:10393400DB0644BF4FF48003C4F804337369C4F84E
:1039440044350023C4F848350123A360E3602846C6
:1039540003B0BDE8F0836FF00405F8E70000AD0B99
:103964000123834070B5DC430B4AD2E8EF1F01EA20
:103974000405C2E8E65F002EF7D14FF4803282409E
:103984000648C0F80823BFF35F8FBFF36F8F0B4265
:1039940014BF0120002070BD9C1B0020005001506A
:1039A40070B40E4922F07F46D1E90034D01AC3180E
:1039B40044F10004C1E90034A6F50013B3F5400F47
:1039C40009D2074B1B681A0A1B069C19054B42F1C6
:1039D4000005C3E9004570BC01F0E2BC70010020A1
:1039E400A01B002078010020D9B101230D4A834097
:1039F400D2E8EFCF4CEA030CC2E8E1CF0029F7D1BB
:103A04004FF48033084A8340C2F80433074BD3E8A9
:103A1400AF3FC340DB0742BF4FF40012044BC3F86F
:103A2400002170479C1B002000500150981B00206F
:103A340000E100E00D4B1868010A0006BFF35F8F38
:103A44000B4BD3F80435181841F10001B3F5801F6E
:103A54000AD2084BD3E90023904271EB030303D24B
:103A640010F1807041F10001704700BFA01B0020DD
:103A740000500150780100202DE9F04F85B0164622
:103A84001F4604469DF840A0FFF76AFF0190FFF728
:103A9400D1FFB04271EB070352D23B4B301A67EBB4
:103AA4000101984271F100014DD2384B03EB04132C
:103AB400D3E902239F4208BF964258D04FF480387E
:103AC400334908FA04F8204626F07F4BC1F84883AE
:103AD40002F068FE4FF00309584604F15005AD00AA
:103AE400ADB205F1502504F5A87305F580350293B0
:103AF400029A20F07F4341F82230C1F84483D1F880
:103B04000435244AC01A033820F07F4090422ED94D
:103B1400286868B1D1F80435A3EB0B0020F07F408E
:103B2400B0F5000F039322D9204602F03BFE039B1D
:103B3400BAF1000F07D109EB030009F10109D7E736
:103B4400BAF1000F09D06FF0150520460199FFF76F
:103B54004BFF284605B0BDE8F08F01230E4AA34071
:103B6400D2E8EF0F1843C2E8E10F0029F8D1074962
:103B74000E982301C8500F9B01EB04120025C2E9E3
:103B840002675360E1E700BF01008000600100208C
:103B940000500150FDFF7F00981B00207FB50025D9
:103BA4004FF0FF304FF0FF31194C1A4B0226C4F886
:103BB4000833C4F84833184BC4F80855C3E9020164
:103BC4004FF480334FF40012C4F80433134B012133
:103BD400C4F804631520C3F880212A46FEF7A0FF29
:103BE4001520FEF76DFF01230D4AA36023601360C7
:103BF4000C4B0D4A009328460023CDE90155FFF7ED
:103C04003BFF3046FFF7ACFA284604B070BD00BF56
:103C14000050015003000F006001002000E100E0AB
:103C24009C1B0020A5390000FFFF7F002DE9F7430E
:103C34002E4BD3F8042390070BD5D3F8042142B1BB
:103C44000022C3F804212A4AD3F80431136801334B
:103C54001360264AD2F80433D90327D5254BD3E879
:103C6400EF1F21F00100C3E8E40F002CF7D1CB07CC
:103C740002D4D2F84031CBB100251C4CC4F84051D9
:103C8400D4F84031FFF7D6FE4FF02003EFF3118252
:103C940083F31288BFF36F8F174BD3E90267B042E7
:103CA400B94106D282F31188BFF36F8F03B0BDE828
:103CB400F0834FF0FF38D3E900104FF0FF391D6057
:103CC400C3E902894FF48033C4F84833C4F840513F
:103CD400D4F8403182F31188BFF36F8F0029E5D007
:103CE400009032463B4628468847DFE700500150A3
:103CF400A01B0020981B0020600100201FB5431C5E
:103D040022D0012822DD124A124B9042D4BF04462D
:103D14001C46FFF78FFE104B0E49D3E90023801A8F
:103D2400B0F5000F28BF002404448C4228BF0C4681
:103D340000200A49A218CDE90100009143F10003D3
:103D4400FFF79AFE04B010BD024CE2E70124E0E75D
:103D5400FEFF7F00FFFF7F0070010020A5390000F7
:103D640008B5FFF767FE024B1B68C01A08BD00BF09
:103D740070010020012310B5074C15206360FEF785
:103D8400ADFE4FF40012054BC4F80833C4F84833B1
:103D9400034BC3F8802110BD0050015003000F00F5
:103DA40000E100E030B5816885B0103921F00704E6
:103DB400054602F0D9F810220146684602F0ACF933
:103DC40010226846064902F09CF910236A462146EF
:103DD400284602F099F8003818BF012005B030BD1C
:103DE400C88F000030B50D46816887B0102302AA41
:103DF4001039044602F073F8002802DA012007B0F3
:103E040030BD1022204602A902F0FBFC00283AD162
:103E140010221E4902A802F04DF900280CBF01230C
:103E240002232B70204602F0D8FC012301460DF139
:103E34000702204602F053F80028DFDB9DF8073024
:103E4400204603F00F021B096A702B7101220DF149
:103E5400070102F0D6FC10B96B78042B03D90123B7
:103E64006B7000232B71A2682046183A22F00702D7
:103E7400083AA91C02F0D8FC0028BFD12046E91C4E
:103E840002F02BFDBBE70323CBE700BFC88F000084
:103E9400F0B5354F85B046000546694657F826000B
:103EA40002F021FD044610B1FF2005B0F0BD01363B
:103EB40057F8260002A902F016FD012837D12A4638
:103EC40049212A4801F0FDFF294B8DF80C4002934B
:103ED40000229DF800609DF80870264C3146207839
:103EE40002F081FC50B33946607802F07CFC28B3C0
:103EF400A378042B03D09DF8031099421ED1E378D4
:103F0400042B03D09DF80B10994217D12379042B6D
:103F140010D16279022A1DD1174B18482A4649212B
:103F240001F0CFFF6079831E022BBED9BCE70028C5
:103F3400CED0B9E79DF802109942EAD00132032AA3
:103F440004F10604CAD10E482A46492101F0B9FFFA
:103F54000120AAE7032A05D00A4B0B49042A08BF0B
:103F64000B46DAE7094BD8E7088E0000B897000043
:103F7400030103034D9800009A9700000398000082
:103F8400279800009F970000B197000095970000C4
:103F9400014B1B68184700BF84000020014B1B68BD
:103FA400184700BF80000020024B1860024B00201D
:103FB400196070478400002080000020044B1A79A7
:103FC4000AB1824201D1186870470833F7E700BF8D
:103FD400108E000001680E4A0346914215D1C16952
:103FE400A2F11022A2F1EF1291420ED18268012AAD
:103FF4000BD8C26812B101698A4206D0586928B147
:104004009B691B1A5842584170470120704700BFF2
:1040140055AA00FF70B50D4B9E68A6B13046FFF758
:10402400D9FF044678B9F3686BB935690DB92046F0
:1040340070BD2846FFF7CEFF28B9EB68B34202D122
:104044002E462D69F2E70124F1E700BFA41B0020EE
:104054002DE9F8433F4F3C68D4B1BC68C4B1002893
:104064004AD0002948D001FB00F5B5FBF0F08842A6
:1040740042D1281D40D8A9070DD025F003060436E7
:10408400FC6803E06368B34238D2A469002CF9D118
:104094002046BDE8F8832E46F2E7FB6041E006F1D6
:1040A40020016318203A5A600022C3E902242A48F6
:1040B40022691A6160502949D96102B1D3606269E9
:1040C4005A61A1699961AAB193619A6902B1536174
:1040D4004FF0010923610023C4E90169C4E90533F0
:1040E4003B69DB072ED5FFF795FF58B31C4B4846B9
:1040F4001B6826E0FB60E8E70024C9E7A3681BB15E
:10410400174B01201B689847626804F12008921B32
:10411400232AC4D80123A360D4E90523002ABCD0F0
:104124009361A3690BB162695A610023C4E9053341
:104134003B69DA0706D5FFF76DFF18B10120084B7C
:104144001B6898472A4600214046444601F0E4FF94
:104154009EE700BFA41B002055AA00FF669911EE3C
:104164007C00002070B50546002800F08880444E8D
:104174003368002B00F08380B268002A7FD083422A
:1041840003D872681344984203D33E4B01201B6842
:104194009847A5F120042046FFF71CFF18B1394BBE
:1041A40001201B68984755F8183C012B03D0354B68
:1041B40001201B689847002345F8183C55F8143C27
:1041C4003BB39A682ABB55F81C2C02F120015A68AB
:1041D4000A445A6055E905321A6155F8145C2B6992
:1041E40003B1DD6020220021204601F095FF2869FB
:1041F40010B18368002B2ED033699B073FD5FFF79E
:1042040009FF00283BD0BDE870401E4B01201B680D
:10421400184755F8100C00282AD0836843BB42681D
:10422400636813442033636003692361D4E905237D
:104234009AB9CBB9436963618269A261B3B19C61E4
:10424400A36903B15C61236903B1DC60202200210E
:1042540001F062FFD0E72C46E1E79361A369002BEC
:10426400E8D062695A61E5E7F360F7E7F460E7E7ED
:10427400F36845F8083C03B15C61F460BCE770BDC9
:10428400A41B00207C00002038B50C461422002119
:104294000546134801F040FF12491348FFF784FE16
:1042A400232C1CD915F003031FBF043CE418C3F1ED
:1042B4000403ED1822460021284601F02DFF084B87
:1042C4000A49C3E90054203C9D606C609A681160FF
:1042D4009A68A1F11021A1F1EF11D161DA6038BD22
:1042E400A41B0020694100005540000055AA00FFAE
:1042F400F8B500F108064768044630460D4602F05A
:1043040076FC87424BD16368B3F5807F47D80021A0
:10431400304602F064FD002841DD0021304602F001
:1043240052FCE0B345B9294604F1140002F057FDEC
:10433400002834DD0020F8BD04F12C0500212846B6
:1043440002F04DFD00282ADD0021284602F03BFC46
:1043540028B304F138050021284602F040FD002866
:104364001DDD0021284602F02EFCC0B1002104F11D
:10437400140002F034FD002811DD002104F1440092
:1043840002F02DFD00280ADD002104F1500002F0A6
:1043940026FD002803DD002104F15C00C6E7014886
:1043A400C9E700BF80BFFFFF012938B505461446A1
:1043B40001D0074838BD22B901230020C5E92934BA
:1043C400F8E71046FFF7FAFD0028F5D1F1E700BF42
:1043D40000BFFFFF70B500210446FFF789FF0546C3
:1043E40010B10E4D284670BD04F10806304602F0A7
:1043F400FAFB7F28F5D914342946204602F0E3FB62
:104404000028EED0204602F0EEFB0128E9D931461F
:10441400204602F0A3FC0028E4DBE2E700BEFFFF35
:10442400F0B50C4687B0002105461646FFF760FF3D
:10443400002839D103A802F01EFB21466A6803A8AC
:1044440002F0DBFB044618B103A802F01AFB0CE0EF
:1044540005F10804214603A802F080FC002807DBCC
:1044640003A802F00EFB6FF00304A4F5854418E0E2
:1044740005F1680303A96F680846009305F1140267
:10448400234602F086FF04460028DDD13A46314631
:1044940003A802F0C8FB044603A802F0F2FA002CB9
:1044A400E3D1204607B0F0BD004CFAE780BFFFFF20
:1044B400012903462DE9F04143D8234A002918BFB6
:1044C4009046224A224F18BF964602F1794202F5DD
:1044D400740202F5016218BF94461E4A1E4818BFB2
:1044E40017461E4A1E4E18BF164602F1D14208BF97
:1044F400804602F5C0121B4802F51E6208BF8646BC
:10450400194D1A4818BF1546194A08BF8446194C54
:10451400194818BF1446A2F11162A2F50C22A2F2A6
:104524008E2218BF02460020C3E9028EC3E90000B0
:10453400C3E904C7C3E90665C3E908429966BDE84F
:10454400F0816FF07300FAE7D89E05C107D57C3679
:104554003AF54FA539590EF767E6096A310BC0FFE2
:104564007F520E5185AE67BB8C68059B72F36E3C1F
:10457400A78FF964ABD9831FA44FFABE2DE9F04F7E
:10458400D1B00DF58E7B5A46031D019300F124032F
:104594000393019B53F8040F42F8040F03989842C5
:1045A400F8D1DDE948074FF000094F9B4CAD029369
:1045B400DDE94AE30493424B06AA059395E82011EA
:1045C400B9F10F0F63D84C780B78240444EA0364E0
:1045D400CB7823438C7843EA04234FEAF52A8CEA08
:1045E4000804059E8AEAB51A2C408AEA756A84EAA8
:1045F4000C04544456F804AB936054442344029C82
:104604004FEA703A234440EA070405968AEAB00A5E
:1046140004EA0E0400EA07068AEAB05A3443544412
:1046240009F10109DDF810A0B9F1400F9A4402F133
:104634000402234401F10401CDF808C0CDF810E0D0
:104644001ED1CDE90634CDE94E8CCDE94CA5CDE99A
:104654004A7ECDE94830019A52F8043F01925BF852
:10466400042F1344019A1360039B9342F3D106A8C9
:104674004FF4947100F052FF002051B0BDE8F08F68
:10468400BE46C4460746A8461846554698E71368EA
:1046940052F8384C4FEAF34A8AEA734A8AEA932A70
:1046A40052F8143C52F8346C234452F8344C5344BA
:1046B4004FEAB44484EAF61484EAD60423448CE72B
:1046C400288E000008B5EFF31083012B0C4A07D1A4
:1046D400126ABFF34F8F511C4A424A41104608BD2B
:1046E40003F064FC00B172B6126ABFF34F8F531C1F
:1046F4005A425A4103F05AFC0028EFD062B6EDE763
:104704000080FF0008B5EFF31083012B0B4A06D19C
:10471400D269BFF34F8F02F00102104608BD03F0C7
:1047240045FC00B172B6D269BFF34F8F02F00102AB
:1047340003F03CFC0028F0D062B6EEE70080FF00F6
:1047440010B503F033FC30B14FF050230022C3F80E
:104754001421C3F8182103F038FC28B101224D4B71
:10476400C3F8382AC3F878254FF47F02D2F83031E1
:10477400D2F83421BFF34F8FC3F30B03092B05D1B8
:10478400012A1EBF0122434BC3F8782503F01DFC08
:1047940018B10E22404BC3F8E42E03F007FC30B1ED
:1047A40000223C4BC3F80C270122C3F81027002237
:1047B400D30003F57F03D3F80013BFF34F8F013108
:1047C40008D0D3F800130132D3F80433B2F5807F54
:1047D4000B60EDD1EFF31084FFF794FF00284DD068
:1047E400BFF34F8F2D4BD3F80024012AFBD1C3F81C
:1047F4000425D3F80024012AFBD1012C03D003F0B3
:10480400D5FB00B172B6FFF77DFF58B1244AD369D6
:1048140023F00103D361BFF34F8F204AD2F8003451
:10482400012BFBD1FFF74EFF68B11D4A136A23F039
:10483400FF0343F020031362BFF34F8F174AD2F8EC
:104844000034012BFBD1012C03D003F0AFFB00B1EA
:1048540062B60022114BC3F80425D3F80024012AC0
:10486400FBD1BFF34F8F0F490F4BCA6802F4E062CC
:104874001343CB60BFF34F8F00BFFDE7FFF722FF69
:104884000028ADD1074AD2F88C3043F44063C2F813
:104894008C3010BD0040005000A003500090035025
:1048A4000080FF0000ED00E00400FA0530B5046864
:1048B400ACB1B4FA84F30122C3F11F03DBB29A4012
:1048C40024EA0202D0E8EF5FA54204D1C0E8EC2F4D
:1048D400BCF1000FF6D1EAD102480B7030BD02489A
:1048E400FCE700BF0000AD0B0200AD0B10B5036880
:1048F400CB40DB0710D401238B40026843EA02015A
:10490400D0E8EF4F944204D1C0E8EC1FBCF1000F93
:10491400F6D1F2D1014810BD0148FCE70000AD0B0F
:104924000400AD0B014BC3F804057047007001503F
:10493400044B1A7922B9012218601A71024870478F
:1049440002487047B81B00200000AD0B0C00AD0BF3
:104954004FF0502310B5D3F8002152B10020C3F812
:104964000001D3F800210122C3F80823104B1B686F
:1049740098474FF05023D3F8042182B10022C3F8A2
:104984000421D3F80421D3F81824D3F818240221DD
:1049940002F00302012A03D1C3F818159A6010BD6E
:1049A400C3F80813024B0120BDE810401B681847E8
:1049B400B81B002001460148FFF778BF880000209B
:1049C400036803F01F025B090260024818BF00205D
:1049D400704700BF00258450034BC0B2083033F841
:1049E4001000C0F3401070478C000020034BC0B28D
:1049F400083033F81000C0F3400070478C000020EA
:104A0400034BC0B2083033F81000400B704700BFAE
:104A14008C00002070B50D4C00F1080334F81330FD
:104A24000546DA050E4607D5C3F3432304EBC30258
:104A3400526854F833309847A3682BB1314628465E
:104A4400E268BDE87040184770BD00BF8C000020CC
:104A540010B4124AC0B2083032F81030D9051BD550
:104A6400C3F3432123F4F85322F81030002002F159
:104A74000E0434F8023F13F4807F03D0C3F34323BE
:104A8400994209D001302028F3D1002342F8313073
:104A9400034810BCFFF72ABF10BC70478C000020ED
:104AA400E000002001460020F0B5012506460F4A2B
:104AB4000F4C02F13043A3F551439B0805FA03F36D
:104AC400194204D0176817B11660176818430432E6
:104AD400A242EED1074BD3F87C2132B10022C3F8B5
:104AE4007C21D3F87C3140F00040F0BD00D100506F
:104AF40020D1005000D000502DE9FF4104469046DB
:104B04001D4601B3FFF772FF18B12046FFF764FF9B
:104B140028BB00230DF10F02CDE900338DF80E30D0
:104B24008DF80F3020460B460DF10E0103F012FBF9
:104B34004749E3B2083331F8132022F0020242F06D
:104B4400010221F81320B8F1000F32D0204698F862
:104B54000060D8F80420FFF749FF10B1F2B13D48D6
:104B640029E03B4FE0B2083037F8101021F0200163
:104B7400C904C90C27F8101082B1032EEFD8D8F855
:104B8400043093F800C06246920002F1A04202F59C
:104B940050429EB9C2F81065C2F810652C49E3B2C0
:104BA400083331F8132022F01C0242EA860221F86D
:104BB40013201DBB284804B0BDE8F081D2F810359D
:104BC40041EA4C3123F00303C2F81035D2F8103512
:104BD40041F0200123F4473323F44073C2F8103525
:104BE400D2F810E5230203F4F85343EA0E0343EA30
:104BF4000643C2F8103527F81010CFE72046D5E950
:104C04000067FFF725FF002ED4D0114DD5E900230E
:104C1400964201D19F4219D010480DF10F01FFF7C0
:104C240045FE0D4B9842C6D19DF80F20E0B205EB2E
:104C3400C20308305F6035F8103045F8326043EA4B
:104C4400422343F4807325F81030B3E70022EDE7E4
:104C54008C0000200400AD0B0000AD0BE000002030
:104C6400F0B50446164685B029B3FFF7BFFE20B958
:104C74002046FFF7B1FE002862D1324FE5B2083575
:104C840037F8153013F01C0F02D04B78012B57D096
:104C940001238DF80F3000234A1CCDE90013204670
:104CA4008B1C0DF10F0103F055FA37F8153043F062
:104CB400030327F8153016B9234805B0F0BD204684
:104CC400FFF794FE00283BD096F800C0002361460D
:104CD4001C4FE5B2083537F81500890020F0200094
:104CE40001F1A041C00401F55041C00CC1F81035D8
:104CF40027F81500C1F810357278002ADCD0D1F8F5
:104D04001035B67823F4981323F4F853C1F810350A
:104D140012042302D1F810E502F4403203F4F853EC
:104D24001343320543EA0E0302F4801240EA4C3086
:104D3400134340F02000C1F8103527F81500BBE7F5
:104D44000248BAE78C0000200000AD0B0400AD0B54
:104D5400014BC3E9020170478C00002008B50246EC
:104D6400FFF73AFE40B1054BD2B2083233F81230A5
:104D740003485B0B0B7008BD0248FCE78C00002065
:104D84000000AD0B0400AD0B70B50F4C94F85860E7
:104D9400BEB90E4D4022314604F1100001F0BCF9B9
:104DA4000D20C5F87C61D5F87C31FDF789FE4FF004
:104DB4000043C5F804330123054884F8583063657B
:104DC40070BD0448FCE700BF8C00002000D00050F8
:104DD4000000AD0B0500AD0B034B93F858000038F1
:104DE40018BF0120704700BF8C0000200146014815
:104DF400FFF77CBDDC00002001460148FFF756BDEB
:104E0400DC00002037B50446FFF7E6FD08B3204672
:104E1400FFF7ECFD0546E0B92046FFF7F1FD03B2CC
:104E24009B0003F1A04202F5514203F1A043156037
:104E340003F550431268D3F8102542F00102C3F879
:104E4400102521B10123124A8340C2F8043303B070
:104E540030BD104AE3B2083332F81330C3F382038F
:104E6400042B11D0052B11D001A80194FFF7A8FD44
:104E7400019B0169D94001F001010231204603B0D0
:104E8400BDE8304003F0AFB90321F7E70221F5E7AD
:104E940000D000508C00002008B50246FFF79CFDAE
:104EA400C0B11046FFF7A2FDA0B91046FFF7A8FD58
:104EB40001230B4A8340C2F8083303B29B0003F179
:104EC400A04303F55043D3F8102522F00302C3F89E
:104ED400102508BD0021BDE80840104603F083B941
:104EE40000D0005073B51B4EC5B2083536F81530E6
:104EF4000446DB072BD5FFF7CFFF2046FFF76CFDF9
:104F040068B12046FFF77CFD002203B29B0003F149
:104F1400A04303F55043C3F81025C3F810252046D9
:104F2400FFF796FD002301A826F815300194FFF73A
:104F340047FD019B00EB8300D0F80022064B134091
:104F440043F00203C0F80032044802B070BD0448C4
:104F5400FBE700BF8C000020F0F8FCFF0000AD0B65
:104F64000400AD0B2DE9F74F4E4BD3F80403C0B248
:104F740040F00040FFF796FD051E14DA4A4FDFF8B3
:104F84002C913B6A00933B624FF00108009C84B96A
:104F94004FF00040FFF786FD3B6A00933B62002B15
:104FA400F2D125F000450124002D63D103B0BDE802
:104FB400F08F94FAA4F4B4FA84F4E00804F108033A
:104FC40039F813A004F007021DF8003008FA02F2C1
:104FD40023EA02030DF8003001A80194FFF7F0FC66
:104FE400019B4FEA9A01803350F82360CAF3820B85
:104FF4004B07DA46C6F3014621D520465946FFF74A
:1050040009FD01A80194FFF7DBFC019BF6B2803394
:1050140050F82330C3F301439E4207D100212046B8
:1050240003F0E1F83146204603F0DDF801A80194CD
:10503400FFF7C6FC019B08FA03F30362A6E7022EFE
:105044000CD10321204603F0CEF80BF00503012B0D
:10505400ECD151462046FFF7DDFCE7E7022120466C
:1050640003F0C1F8BBF1030FF3D0032EDED1BBF183
:10507400020FEDE795FAA5F3B3FA83F304FA03F20A
:105084009B0003F1A04303F55043D3F81005D3F874
:105094001015C0F30420C1F3014125EA0205FFF70E
:1050A400B9FC81E700D00050002584508C0000201A
:1050B4000022034BC3F88425C3F80425704700BFBE
:1050C40000900350044AD2F80834DB07FBD5016092
:1050D400BFF35F8F704700BF0090035008B5C0F363
:1050E4000B0383B90222094BC3F88425C3F80425B2
:1050F4004FF0FF320260D3F80024D207FBD5FFF74C
:10510400D7FF034808BD0348FCE700BF00900350E5
:105114000000AD0B0A00AD0B012208B5054BC3F826
:105124008425C3F80425FFF7CDFFBDE80840FFF749
:10513400BFBF00BF009003500346084600B9704744
:10514400421E995C09B91046F8E7022807D90238CB
:10515400062896BF024B00231B5C01209840704731
:105164008998000070B51C46012C05460368164654
:10517400C06816D11278172A04D90233984214D37E
:10518400002321E0013398420FD30024284603F082
:1051940097FA60B13444B44219D1AB680133AB60BF
:1051A40006E0621C1344984206D26B690BB90020D6
:1051B40070BD0822DA60FAE70CB93278E6E7A31E7C
:1051C400062BDDD8054AD35C1833DAB2DEE72B6848
:1051D4005A1C2A6014F8012D1A70DCE78998000023
:1051E400104B70B553F82040013053F82060A642AC
:1051F40000D870BDD4E9003595B153B1284698471D
:1052040038B10028B8BF4042FF28A8BFFF20EB6890
:105214001870EA68537843F0010353700834E6E7E2
:105224009847FBE7288F0000012208B5084B0320AC
:105234001A70FFF7D5FF00F01BF90420FFF7D0FF29
:10524400FBF7E6F8034A137B23F00103137308BD4D
:10525400C93D00208001002008B50348034A00210D
:10526400121A03F0FFFA08BD60010020CC3D0020B3
:1052740008B50020FFF7B4FF164B03F5006282F374
:10528400088883F30A880025E023134C84F822302D
:10529400E57725766576A57684F82050636A43F42D
:1052A400E023636284F82350FDF7E0FDFDF7E8FB9B
:1052B4004FF0FF33A362E36203F0B8FA0120FFF773
:1052C4008FFF0220FFF78CFF2B462A46294603480E
:1052D400FDF76CFCD03D002000ED00E02D520000F5
:1052E40008B50648064A0749121A03F0BDFABDE894
:1052F4000840054A0549064803F0B6BA00000020F4
:105304005A010020BC98000000000000BC98000076
:1053140000000020034B1B680BB9FEF721BD0020E1
:10532400704700BFC01B002010B50E4B1C689C4288
:1053340004D1FFF7EFFF6FF0004010BDFFF7EAFF65
:10534400002CF8D0D4E904321B1A62EBE072B3F1FA
:10535400004F72F10001EEDA002AACBF18460020BB
:10536400EBE700BFE800002030B570B10B4B5B6881
:1053740098420AD0036843B1D3E90421D0E9044533
:10538400121941EB0501C3E90421D0E9003213608D
:105394005A600023C0E9003330BD00BFE80000209C
:1053A4002DE9F84F4FF02003EFF3118C83F31288AB
:1053B400BFF36F8FDFF8ACA0DFF8AC900024C9F81E
:1053C4000000DAF800000025504508BF0020274FF0
:1053D400E046D7E90021D9F8003080B3D0E9046C65
:1053E4004FEAE37EB3427EEB0C0B05DAF61A6CEB64
:1053F4000E04C0E9046422E0B21841EBE671C0E98E
:105404000445C7E90021FFF7AFFF88F31188BFF314
:105414006F8F836898474FF02003EFF3118883F36D
:105424001288BFF36F8FD9F80030DAF800009B1BA5
:105434005045C446C9F80030CAD1D7E90021002438
:105444009A1841EBE373C7E90023C9F80040FFF75A
:105454006BFF2146FEF752FC88F31188BFF36F8F70
:10546400BDE8F88FE8000020C01B002000020020E7
:10547400014800F03FBC00BF9398000010B50A4CEF
:1054840023681BB101232360002010BD00F050F8F5
:105494000028F7D00138062803D8044B53F820001D
:1054A40010BD034810BD00BFC41B0020408F000086
:1054B400FE8FFFFFBFF34F8F0549064BCA6802F406
:1054C400E0621343CB60BFF34F8F00BFFDE700BF23
:1054D40000ED00E00400FA0530B44FF0FE32002580
:1054E400074B084C08494968C3F80024C3F804244E
:1054F400C3F80824C3F80C24C4F8005530BC08478A
:105504000010845000008450F0000020024BD0E9C9
:105514000012C3E900127047F000002038B131B125
:10552400002201440346013088421A70FAD17047C0
:1055340038B500F02FF820B1032400F063F82046BA
:1055440038BD00F031F898B900F0ACF898B90F4DB7
:10555400D5F828391B0EF02B08D1D5F8242A0C4B8A
:105564009A420AD0072400F017F8E6E70624FAE77F
:105574000424204638BD0024F5E7012000F092F809
:1055840004460028F7D1C5F80C0AD8E70010845067
:105594000000E0200020704700207047014BC3F852
:1055A400040A70470010845010B5114800F048F800
:1055B40000B110BD0F4800F043F80028F9D10E4C9B
:1055C400204600F03DF80028F3D10C4B0C481C6039
:1055D40000F036F801460028EBD100F02DF804461F
:1055E40008B1204610BD00F03FF82046FAE700BF9E
:1055F400080100200401002000010020F800002020
:10560400FC00002008B5084800F024F8074800F022
:1056140021F8074800F01EF8064800F01BF8BDE822
:10562400084000F00BB800BF08010020040100206E
:1056340000010020FC00002000207047704700BFDC
:1056440008B5034B02681B6810689847002008BD22
:105654002001002008B5034B02685B681068984776
:10566400002008BD2001002070B5094C094D2069B7
:10567400AB68984718B1084B08485B689847002105
:10568400074AEB6811602069BDE87040184700BF05
:105694000C01002020010020F00000205C8F00009D
:1056A400C81B0020F8B51A4D1A4E0446B268286982
:1056B4009047E8B9184F3B684CB1A3B1012B19D0FE
:1056C400013B3B602869F36898470020F8BD43B963
:1056D4000121124AC2F800151149D1F81029002AF3
:1056E400FBD101333B60F368286998470020F8BD7B
:1056F4000C48F8BD0A4AD2F81039002BFBD1074AEE
:105704006FF07E40C2F80035FFF748FF3B68D7E7EB
:105714000C01002020010020C81B00200000845040
:1057240000108450E98FFFFF10B5044650B1636840
:1057340013F0685F05D0064A934202D000236260EA
:10574400236010BD034B04485B689847EFE700BF34
:105754002C5F5CA9F00000207C8F0000C8B1436876
:105764000D4A934213D013F0685F0ED0012350E822
:10577400002F194640E8001C9CF0000FF7D1012AC5
:10578400F5D0BFF35F8F002070470448704704488A
:1057940070476FF4E04070472C5F5CA9E98FFFFF0E
:1057A400EA8FFFFF034680B1426809498A420AD062
:1057B40012F0685F05D0BFF35F8F002210461A60B5
:1057C400704704487047044870476FF4E0407047DE
:1057D4002C5F5CA9E98FFFFFEA8FFFFF10B5044639
:1057E40020B10023034A2360626010BD0248FFF722
:1057F40073FEF6E73A00003AA48F000000207047D9
:1058040030B5836804468B42154685B00ED963686B
:10581400C068194401AA00F0A0FD28B96268019B80
:105824009B1A2B60029B6B6005B030BD6FF02100AA
:10583400FAE72DE9F7430E4617469946044628B978
:105844004FF0FF38404603B0BDE8F0830029F7D09D
:10585400002AF5D0CB680D8938461D440423294617
:105864000DEB030200F03BFB80460028E8D146F62E
:105874000812BDF804107389914225D1BDF80610B1
:105884009942DDD1042338460DEB0302294400F08C
:1058940026FB0028D4D146F60713BDF804209A420B
:1058A400CED1C4E900679DF82830A4F80890A3720B
:1058B4007389BDF806202B44E360738913442B4499
:1058C400043563612561BDE7002BE4D0B8E72DE919
:1058D400F3410E4617461D46044620B94FF0FF30EB
:1058E40002B0BDE8F0810368002BF7D04368002BB9
:1058F400F4D04FF6FF78D4E904239A4216D22368F1
:105904005B8923B1E368934204BF04332361042316
:10591400216960680DEB030200F0E1FA0028DDD193
:10592400A37A2BB1D4E903329A4201D30120D7E7F9
:105934002389BDF80610434501F1040203D0BDF8E4
:1059440004C09C450BD115B1BDF804302B802369EC
:10595400043333603980236913442361C0E7236926
:1059640013442361C7E74FF4407358433030704702
:1059740010B5044600F0F1FA4FF44072A368303BCE
:1059840002FB103010BD70B50D46044600F025FF33
:105994002A46A0F1080104232046BDE8704000F027
:1059A4009EBA13B50446019100F017FF0423A0F139
:1059B40008010DEB0302204600F052FF02B010BDB7
:1059C400FFF7FEBFFFF7FCBFFFF7FABFFFF7F8BF13
:1059D400FFF7F6BFFFF7F4BFFFF7F2BFFFF7F0BF23
:1059E400FFF7EEBF704770B513460E46154600210B
:1059F40002460446FBF71CFB50B92B460121204606
:105A040004F12C02FBF714FB10B1002E08BF002098
:105A140070BD73B5044600200D461646FAF7A8FD7E
:105A24006946C0B2FCF7B4FA30BB2C2303FB05442F
:105A3400E368258900981D44042329460DEB0302DD
:105A440000F04DFAC0B946F60813BDF80420648985
:105A54009A42009815D1BDF806309C420CD104231B
:105A640061190DEB030200F03AFA28B946F6071360
:105A7400BDF804209A4207D0009800F02FFA02B033
:105A840070BD002CF2D0F7E7BDF80610214429447C
:105A94003160F1E737B54FF480750446426A01A9D5
:105AA40002200195FCF79CFA58B9019B0820226D4D
:105AB400A36201A90195FCF793FA054628B10925CB
:105AC40000E00125284603B030BD019B206A6365D0
:105AD40000F043FAE065F5E70123036003F10123D5
